{
	"data": {
		"bytecode": {
			"linkReferences": {},
			"object": "608060405234801561000f575f5ffd5b50604051610f2d380380610f2d83398181016040528101906100319190610240565b835f908161003f91906104e3565b50826001908161004f91906104e3565b5081600281905550620151808161006691906105df565b426100719190610620565b6003819055503360045f6101000a81548173ffffffffffffffffffffffffffffffffffffffff021916908373ffffffffffffffffffffffffffffffffffffffff16021790555050505050610653565b5f604051905090565b5f5ffd5b5f5ffd5b5f5ffd5b5f5ffd5b5f601f19601f8301169050919050565b7f4e487b71000000000000000000000000000000000000000000000000000000005f52604160045260245ffd5b61011f826100d9565b810181811067ffffffffffffffff8211171561013e5761013d6100e9565b5b80604052505050565b5f6101506100c0565b905061015c8282610116565b919050565b5f67ffffffffffffffff82111561017b5761017a6100e9565b5b610184826100d9565b9050602081019050919050565b8281835e5f83830152505050565b5f6101b16101ac84610161565b610147565b9050828152602081018484840111156101cd576101cc6100d5565b5b6101d8848285610191565b509392505050565b5f82601f8301126101f4576101f36100d1565b5b815161020484826020860161019f565b91505092915050565b5f819050919050565b61021f8161020d565b8114610229575f5ffd5b50565b5f8151905061023a81610216565b92915050565b5f5f5f5f60808587031215610258576102576100c9565b5b5f85015167ffffffffffffffff811115610275576102746100cd565b5b610281878288016101e0565b945050602085015167ffffffffffffffff8111156102a2576102a16100cd565b5b6102ae878288016101e0565b93505060406102bf8782880161022c565b92505060606102d08782880161022c565b91505092959194509250565b5f81519050919050565b7f4e487b71000000000000000000000000000000000000000000000000000000005f52602260045260245ffd5b5f600282049050600182168061032a57607f821691505b60208210810361033d5761033c6102e6565b5b50919050565b5f819050815f5260205f209050919050565b5f6020601f8301049050919050565b5f82821b905092915050565b5f6008830261039f7fffffffffffffffffffffffffffffffffffffffffffffffffffffffffffffffff82610364565b6103a98683610364565b95508019841693508086168417925050509392505050565b5f819050919050565b5f6103e46103df6103da8461020d565b6103c1565b61020d565b9050919050565b5f819050919050565b6103fd836103ca565b610411610409826103eb565b848454610370565b825550505050565b5f5f905090565b610428610419565b6104338184846103f4565b505050565b5b818110156104565761044b5f82610420565b600181019050610439565b5050565b601f82111561049b5761046c81610343565b61047584610355565b81016020851015610484578190505b61049861049085610355565b830182610438565b50505b505050565b5f82821c905092915050565b5f6104bb5f19846008026104a0565b1980831691505092915050565b5f6104d383836104ac565b9150826002028217905092915050565b6104ec826102dc565b67ffffffffffffffff811115610505576105046100e9565b5b61050f8254610313565b61051a82828561045a565b5f60209050601f83116001811461054b575f8415610539578287015190505b61054385826104c8565b8655506105aa565b601f19841661055986610343565b5f5b828110156105805784890151825560018201915060208501945060208101905061055b565b8683101561059d5784890151610599601f8916826104ac565b8355505b6001600288020188555050505b505050505050565b7f4e487b71000000000000000000000000000000000000000000000000000000005f52601160045260245ffd5b5f6105e98261020d565b91506105f48361020d565b92508282026106028161020d565b91508282048414831517610619576106186105b2565b5b5092915050565b5f61062a8261020d565b91506106358361020d565b925082820190508082111561064d5761064c6105b2565b5b92915050565b6108cd806106605f395ff3fe60806040526004361061007a575f3560e01c8063401938831161004d57806340193883146101125780637284e4161461013c5780638da5cb5b14610166578063b60d4288146101905761007a565b806306fdde031461007e57806312065fe0146100a857806329dcb0cf146100d25780633ccfd60b146100fc575b5f5ffd5b348015610089575f5ffd5b5061009261019a565b60405161009f9190610563565b60405180910390f35b3480156100b3575f5ffd5b506100bc610225565b6040516100c9919061059b565b60405180910390f35b3480156100dd575f5ffd5b506100e661022c565b6040516100f3919061059b565b60405180910390f35b348015610107575f5ffd5b50610110610232565b005b34801561011d575f5ffd5b506101266103b4565b604051610133919061059b565b60405180910390f35b348015610147575f5ffd5b506101506103ba565b60405161015d9190610563565b60405180910390f35b348015610171575f5ffd5b5061017a610446565b60405161018791906105f3565b60405180910390f35b61019861046b565b005b5f80546101a690610639565b80601f01602080910402602001604051908101604052809291908181526020018280546101d290610639565b801561021d5780601f106101f45761010080835404028352916020019161021d565b820191905f5260205f20905b81548152906001019060200180831161020057829003601f168201915b505050505081565b5f47905090565b60035481565b60045f9054906101000a900473ffffffffffffffffffffffffffffffffffffffff1673ffffffffffffffffffffffffffffffffffffffff163373ffffffffffffffffffffffffffffffffffffffff16146102c1576040517f08c379a00000000000000000000000000000000000000000000000000000000081526004016102b8906106b3565b60405180910390fd5b600254471015610306576040517f08c379a00000000000000000000000000000000000000000000000000000000081526004016102fd90610741565b60405180910390fd5b5f4790505f811161034c576040517f08c379a0000000000000000000000000000000000000000000000000000000008152600401610343906107a9565b60405180910390fd5b60045f9054906101000a900473ffffffffffffffffffffffffffffffffffffffff1673ffffffffffffffffffffffffffffffffffffffff166108fc8290811502906040515f60405180830381858888f193505050501580156103b0573d5f5f3e3d5ffd5b5050565b60025481565b600180546103c790610639565b80601f01602080910402602001604051908101604052809291908181526020018280546103f390610639565b801561043e5780601f106104155761010080835404028352916020019161043e565b820191905f5260205f20905b81548152906001019060200180831161042157829003601f168201915b505050505081565b60045f9054906101000a900473ffffffffffffffffffffffffffffffffffffffff1681565b5f34116104ad576040517f08c379a00000000000000000000000000000000000000000000000000000000081526004016104a490610811565b60405180910390fd5b60035442106104f1576040517f08c379a00000000000000000000000000000000000000000000000000000000081526004016104e890610879565b60405180910390fd5b565b5f81519050919050565b5f82825260208201905092915050565b8281835e5f83830152505050565b5f601f19601f8301169050919050565b5f610535826104f3565b61053f81856104fd565b935061054f81856020860161050d565b6105588161051b565b840191505092915050565b5f6020820190508181035f83015261057b818461052b565b905092915050565b5f819050919050565b61059581610583565b82525050565b5f6020820190506105ae5f83018461058c565b92915050565b5f73ffffffffffffffffffffffffffffffffffffffff82169050919050565b5f6105dd826105b4565b9050919050565b6105ed816105d3565b82525050565b5f6020820190506106065f8301846105e4565b92915050565b7f4e487b71000000000000000000000000000000000000000000000000000000005f52602260045260245ffd5b5f600282049050600182168061065057607f821691505b6020821081036106635761066261060c565b5b50919050565b7f4265636f6d6520746865206f776e6572205844000000000000000000000000005f82015250565b5f61069d6013836104fd565b91506106a882610669565b602082019050919050565b5f6020820190508181035f8301526106ca81610691565b9050919050565b7f596f757220476f616c206973206e6f74207265616368656420796574206475645f8201527f652e000000000000000000000000000000000000000000000000000000000000602082015250565b5f61072b6022836104fd565b9150610736826106d1565b604082019050919050565b5f6020820190508181035f8301526107588161071f565b9050919050565b7f546865726573206e6f20206d6f6e6579206c6566742e000000000000000000005f82015250565b5f6107936016836104fd565b915061079e8261075f565b602082019050919050565b5f6020820190508181035f8301526107c081610787565b9050919050565b7f47657420736f6d65206d6f6e657920706f6f72206775792e00000000000000005f82015250565b5f6107fb6018836104fd565b9150610806826107c7565b602082019050919050565b5f6020820190508181035f830152610828816107ef565b9050919050565b7f54696d652068617320656e6465642e00000000000000000000000000000000005f82015250565b5f610863600f836104fd565b915061086e8261082f565b602082019050919050565b5f6020820190508181035f83015261089081610857565b905091905056fea2646970667358221220c3d26344f9bbbf0466c6a30c7ba3f77231570a95b843284dba0bb28436d27be164736f6c634300081e0033",
			"opcodes": "PUSH1 0x80 PUSH1 0x40 MSTORE CALLVALUE DUP1 ISZERO PUSH2 0xF JUMPI PUSH0 PUSH0 REVERT JUMPDEST POP PUSH1 0x40 MLOAD PUSH2 0xF2D CODESIZE SUB DUP1 PUSH2 0xF2D DUP4 CODECOPY DUP2 DUP2 ADD PUSH1 0x40 MSTORE DUP2 ADD SWAP1 PUSH2 0x31 SWAP2 SWAP1 PUSH2 0x240 JUMP JUMPDEST DUP4 PUSH0 SWAP1 DUP2 PUSH2 0x3F SWAP2 SWAP1 PUSH2 0x4E3 JUMP JUMPDEST POP DUP3 PUSH1 0x1 SWAP1 DUP2 PUSH2 0x4F SWAP2 SWAP1 PUSH2 0x4E3 JUMP JUMPDEST POP DUP2 PUSH1 0x2 DUP2 SWAP1 SSTORE POP PUSH3 0x15180 DUP2 PUSH2 0x66 SWAP2 SWAP1 PUSH2 0x5DF JUMP JUMPDEST TIMESTAMP PUSH2 0x71 SWAP2 SWAP1 PUSH2 0x620 JUMP JUMPDEST PUSH1 0x3 DUP2 SWAP1 SSTORE POP CALLER PUSH1 0x4 PUSH0 PUSH2 0x100 EXP DUP2 SLOAD DUP2 PUSH20 0xFFFFFFFFFFFFFFFFFFFFFFFFFFFFFFFFFFFFFFFF MUL NOT AND SWAP1 DUP4 PUSH20 0xFFFFFFFFFFFFFFFFFFFFFFFFFFFFFFFFFFFFFFFF AND MUL OR SWAP1 SSTORE POP POP POP POP POP PUSH2 0x653 JUMP JUMPDEST PUSH0 PUSH1 0x40 MLOAD SWAP1 POP SWAP1 JUMP JUMPDEST PUSH0 PUSH0 REVERT JUMPDEST PUSH0 PUSH0 REVERT JUMPDEST PUSH0 PUSH0 REVERT JUMPDEST PUSH0 PUSH0 REVERT JUMPDEST PUSH0 PUSH1 0x1F NOT PUSH1 0x1F DUP4 ADD AND SWAP1 POP SWAP2 SWAP1 POP JUMP JUMPDEST PUSH32 0x4E487B7100000000000000000000000000000000000000000000000000000000 PUSH0 MSTORE PUSH1 0x41 PUSH1 0x4 MSTORE PUSH1 0x24 PUSH0 REVERT JUMPDEST PUSH2 0x11F DUP3 PUSH2 0xD9 JUMP JUMPDEST DUP2 ADD DUP2 DUP2 LT PUSH8 0xFFFFFFFFFFFFFFFF DUP3 GT OR ISZERO PUSH2 0x13E JUMPI PUSH2 0x13D PUSH2 0xE9 JUMP JUMPDEST JUMPDEST DUP1 PUSH1 0x40 MSTORE POP POP POP JUMP JUMPDEST PUSH0 PUSH2 0x150 PUSH2 0xC0 JUMP JUMPDEST SWAP1 POP PUSH2 0x15C DUP3 DUP3 PUSH2 0x116 JUMP JUMPDEST SWAP2 SWAP1 POP JUMP JUMPDEST PUSH0 PUSH8 0xFFFFFFFFFFFFFFFF DUP3 GT ISZERO PUSH2 0x17B JUMPI PUSH2 0x17A PUSH2 0xE9 JUMP JUMPDEST JUMPDEST PUSH2 0x184 DUP3 PUSH2 0xD9 JUMP JUMPDEST SWAP1 POP PUSH1 0x20 DUP2 ADD SWAP1 POP SWAP2 SWAP1 POP JUMP JUMPDEST DUP3 DUP2 DUP4 MCOPY PUSH0 DUP4 DUP4 ADD MSTORE POP POP POP JUMP JUMPDEST PUSH0 PUSH2 0x1B1 PUSH2 0x1AC DUP5 PUSH2 0x161 JUMP JUMPDEST PUSH2 0x147 JUMP JUMPDEST SWAP1 POP DUP3 DUP2 MSTORE PUSH1 0x20 DUP2 ADD DUP5 DUP5 DUP5 ADD GT ISZERO PUSH2 0x1CD JUMPI PUSH2 0x1CC PUSH2 0xD5 JUMP JUMPDEST JUMPDEST PUSH2 0x1D8 DUP5 DUP3 DUP6 PUSH2 0x191 JUMP JUMPDEST POP SWAP4 SWAP3 POP POP POP JUMP JUMPDEST PUSH0 DUP3 PUSH1 0x1F DUP4 ADD SLT PUSH2 0x1F4 JUMPI PUSH2 0x1F3 PUSH2 0xD1 JUMP JUMPDEST JUMPDEST DUP2 MLOAD PUSH2 0x204 DUP5 DUP3 PUSH1 0x20 DUP7 ADD PUSH2 0x19F JUMP JUMPDEST SWAP2 POP POP SWAP3 SWAP2 POP POP JUMP JUMPDEST PUSH0 DUP2 SWAP1 POP SWAP2 SWAP1 POP JUMP JUMPDEST PUSH2 0x21F DUP2 PUSH2 0x20D JUMP JUMPDEST DUP2 EQ PUSH2 0x229 JUMPI PUSH0 PUSH0 REVERT JUMPDEST POP JUMP JUMPDEST PUSH0 DUP2 MLOAD SWAP1 POP PUSH2 0x23A DUP2 PUSH2 0x216 JUMP JUMPDEST SWAP3 SWAP2 POP POP JUMP JUMPDEST PUSH0 PUSH0 PUSH0 PUSH0 PUSH1 0x80 DUP6 DUP8 SUB SLT ISZERO PUSH2 0x258 JUMPI PUSH2 0x257 PUSH2 0xC9 JUMP JUMPDEST JUMPDEST PUSH0 DUP6 ADD MLOAD PUSH8 0xFFFFFFFFFFFFFFFF DUP2 GT ISZERO PUSH2 0x275 JUMPI PUSH2 0x274 PUSH2 0xCD JUMP JUMPDEST JUMPDEST PUSH2 0x281 DUP8 DUP3 DUP9 ADD PUSH2 0x1E0 JUMP JUMPDEST SWAP5 POP POP PUSH1 0x20 DUP6 ADD MLOAD PUSH8 0xFFFFFFFFFFFFFFFF DUP2 GT ISZERO PUSH2 0x2A2 JUMPI PUSH2 0x2A1 PUSH2 0xCD JUMP JUMPDEST JUMPDEST PUSH2 0x2AE DUP8 DUP3 DUP9 ADD PUSH2 0x1E0 JUMP JUMPDEST SWAP4 POP POP PUSH1 0x40 PUSH2 0x2BF DUP8 DUP3 DUP9 ADD PUSH2 0x22C JUMP JUMPDEST SWAP3 POP POP PUSH1 0x60 PUSH2 0x2D0 DUP8 DUP3 DUP9 ADD PUSH2 0x22C JUMP JUMPDEST SWAP2 POP POP SWAP3 SWAP6 SWAP2 SWAP5 POP SWAP3 POP JUMP JUMPDEST PUSH0 DUP2 MLOAD SWAP1 POP SWAP2 SWAP1 POP JUMP JUMPDEST PUSH32 0x4E487B7100000000000000000000000000000000000000000000000000000000 PUSH0 MSTORE PUSH1 0x22 PUSH1 0x4 MSTORE PUSH1 0x24 PUSH0 REVERT JUMPDEST PUSH0 PUSH1 0x2 DUP3 DIV SWAP1 POP PUSH1 0x1 DUP3 AND DUP1 PUSH2 0x32A JUMPI PUSH1 0x7F DUP3 AND SWAP2 POP JUMPDEST PUSH1 0x20 DUP3 LT DUP2 SUB PUSH2 0x33D JUMPI PUSH2 0x33C PUSH2 0x2E6 JUMP JUMPDEST JUMPDEST POP SWAP2 SWAP1 POP JUMP JUMPDEST PUSH0 DUP2 SWAP1 POP DUP2 PUSH0 MSTORE PUSH1 0x20 PUSH0 KECCAK256 SWAP1 POP SWAP2 SWAP1 POP JUMP JUMPDEST PUSH0 PUSH1 0x20 PUSH1 0x1F DUP4 ADD DIV SWAP1 POP SWAP2 SWAP1 POP JUMP JUMPDEST PUSH0 DUP3 DUP3 SHL SWAP1 POP SWAP3 SWAP2 POP POP JUMP JUMPDEST PUSH0 PUSH1 0x8 DUP4 MUL PUSH2 0x39F PUSH32 0xFFFFFFFFFFFFFFFFFFFFFFFFFFFFFFFFFFFFFFFFFFFFFFFFFFFFFFFFFFFFFFFF DUP3 PUSH2 0x364 JUMP JUMPDEST PUSH2 0x3A9 DUP7 DUP4 PUSH2 0x364 JUMP JUMPDEST SWAP6 POP DUP1 NOT DUP5 AND SWAP4 POP DUP1 DUP7 AND DUP5 OR SWAP3 POP POP POP SWAP4 SWAP3 POP POP POP JUMP JUMPDEST PUSH0 DUP2 SWAP1 POP SWAP2 SWAP1 POP JUMP JUMPDEST PUSH0 PUSH2 0x3E4 PUSH2 0x3DF PUSH2 0x3DA DUP5 PUSH2 0x20D JUMP JUMPDEST PUSH2 0x3C1 JUMP JUMPDEST PUSH2 0x20D JUMP JUMPDEST SWAP1 POP SWAP2 SWAP1 POP JUMP JUMPDEST PUSH0 DUP2 SWAP1 POP SWAP2 SWAP1 POP JUMP JUMPDEST PUSH2 0x3FD DUP4 PUSH2 0x3CA JUMP JUMPDEST PUSH2 0x411 PUSH2 0x409 DUP3 PUSH2 0x3EB JUMP JUMPDEST DUP5 DUP5 SLOAD PUSH2 0x370 JUMP JUMPDEST DUP3 SSTORE POP POP POP POP JUMP JUMPDEST PUSH0 PUSH0 SWAP1 POP SWAP1 JUMP JUMPDEST PUSH2 0x428 PUSH2 0x419 JUMP JUMPDEST PUSH2 0x433 DUP2 DUP5 DUP5 PUSH2 0x3F4 JUMP JUMPDEST POP POP POP JUMP JUMPDEST JUMPDEST DUP2 DUP2 LT ISZERO PUSH2 0x456 JUMPI PUSH2 0x44B PUSH0 DUP3 PUSH2 0x420 JUMP JUMPDEST PUSH1 0x1 DUP2 ADD SWAP1 POP PUSH2 0x439 JUMP JUMPDEST POP POP JUMP JUMPDEST PUSH1 0x1F DUP3 GT ISZERO PUSH2 0x49B JUMPI PUSH2 0x46C DUP2 PUSH2 0x343 JUMP JUMPDEST PUSH2 0x475 DUP5 PUSH2 0x355 JUMP JUMPDEST DUP2 ADD PUSH1 0x20 DUP6 LT ISZERO PUSH2 0x484 JUMPI DUP2 SWAP1 POP JUMPDEST PUSH2 0x498 PUSH2 0x490 DUP6 PUSH2 0x355 JUMP JUMPDEST DUP4 ADD DUP3 PUSH2 0x438 JUMP JUMPDEST POP POP JUMPDEST POP POP POP JUMP JUMPDEST PUSH0 DUP3 DUP3 SHR SWAP1 POP SWAP3 SWAP2 POP POP JUMP JUMPDEST PUSH0 PUSH2 0x4BB PUSH0 NOT DUP5 PUSH1 0x8 MUL PUSH2 0x4A0 JUMP JUMPDEST NOT DUP1 DUP4 AND SWAP2 POP POP SWAP3 SWAP2 POP POP JUMP JUMPDEST PUSH0 PUSH2 0x4D3 DUP4 DUP4 PUSH2 0x4AC JUMP JUMPDEST SWAP2 POP DUP3 PUSH1 0x2 MUL DUP3 OR SWAP1 POP SWAP3 SWAP2 POP POP JUMP JUMPDEST PUSH2 0x4EC DUP3 PUSH2 0x2DC JUMP JUMPDEST PUSH8 0xFFFFFFFFFFFFFFFF DUP2 GT ISZERO PUSH2 0x505 JUMPI PUSH2 0x504 PUSH2 0xE9 JUMP JUMPDEST JUMPDEST PUSH2 0x50F DUP3 SLOAD PUSH2 0x313 JUMP JUMPDEST PUSH2 0x51A DUP3 DUP3 DUP6 PUSH2 0x45A JUMP JUMPDEST PUSH0 PUSH1 0x20 SWAP1 POP PUSH1 0x1F DUP4 GT PUSH1 0x1 DUP2 EQ PUSH2 0x54B JUMPI PUSH0 DUP5 ISZERO PUSH2 0x539 JUMPI DUP3 DUP8 ADD MLOAD SWAP1 POP JUMPDEST PUSH2 0x543 DUP6 DUP3 PUSH2 0x4C8 JUMP JUMPDEST DUP7 SSTORE POP PUSH2 0x5AA JUMP JUMPDEST PUSH1 0x1F NOT DUP5 AND PUSH2 0x559 DUP7 PUSH2 0x343 JUMP JUMPDEST PUSH0 JUMPDEST DUP3 DUP2 LT ISZERO PUSH2 0x580 JUMPI DUP5 DUP10 ADD MLOAD DUP3 SSTORE PUSH1 0x1 DUP3 ADD SWAP2 POP PUSH1 0x20 DUP6 ADD SWAP5 POP PUSH1 0x20 DUP2 ADD SWAP1 POP PUSH2 0x55B JUMP JUMPDEST DUP7 DUP4 LT ISZERO PUSH2 0x59D JUMPI DUP5 DUP10 ADD MLOAD PUSH2 0x599 PUSH1 0x1F DUP10 AND DUP3 PUSH2 0x4AC JUMP JUMPDEST DUP4 SSTORE POP JUMPDEST PUSH1 0x1 PUSH1 0x2 DUP9 MUL ADD DUP9 SSTORE POP POP POP JUMPDEST POP POP POP POP POP POP JUMP JUMPDEST PUSH32 0x4E487B7100000000000000000000000000000000000000000000000000000000 PUSH0 MSTORE PUSH1 0x11 PUSH1 0x4 MSTORE PUSH1 0x24 PUSH0 REVERT JUMPDEST PUSH0 PUSH2 0x5E9 DUP3 PUSH2 0x20D JUMP JUMPDEST SWAP2 POP PUSH2 0x5F4 DUP4 PUSH2 0x20D JUMP JUMPDEST SWAP3 POP DUP3 DUP3 MUL PUSH2 0x602 DUP2 PUSH2 0x20D JUMP JUMPDEST SWAP2 POP DUP3 DUP3 DIV DUP5 EQ DUP4 ISZERO OR PUSH2 0x619 JUMPI PUSH2 0x618 PUSH2 0x5B2 JUMP JUMPDEST JUMPDEST POP SWAP3 SWAP2 POP POP JUMP JUMPDEST PUSH0 PUSH2 0x62A DUP3 PUSH2 0x20D JUMP JUMPDEST SWAP2 POP PUSH2 0x635 DUP4 PUSH2 0x20D JUMP JUMPDEST SWAP3 POP DUP3 DUP3 ADD SWAP1 POP DUP1 DUP3 GT ISZERO PUSH2 0x64D JUMPI PUSH2 0x64C PUSH2 0x5B2 JUMP JUMPDEST JUMPDEST SWAP3 SWAP2 POP POP JUMP JUMPDEST PUSH2 0x8CD DUP1 PUSH2 0x660 PUSH0 CODECOPY PUSH0 RETURN INVALID PUSH1 0x80 PUSH1 0x40 MSTORE PUSH1 0x4 CALLDATASIZE LT PUSH2 0x7A JUMPI PUSH0 CALLDATALOAD PUSH1 0xE0 SHR DUP1 PUSH4 0x40193883 GT PUSH2 0x4D JUMPI DUP1 PUSH4 0x40193883 EQ PUSH2 0x112 JUMPI DUP1 PUSH4 0x7284E416 EQ PUSH2 0x13C JUMPI DUP1 PUSH4 0x8DA5CB5B EQ PUSH2 0x166 JUMPI DUP1 PUSH4 0xB60D4288 EQ PUSH2 0x190 JUMPI PUSH2 0x7A JUMP JUMPDEST DUP1 PUSH4 0x6FDDE03 EQ PUSH2 0x7E JUMPI DUP1 PUSH4 0x12065FE0 EQ PUSH2 0xA8 JUMPI DUP1 PUSH4 0x29DCB0CF EQ PUSH2 0xD2 JUMPI DUP1 PUSH4 0x3CCFD60B EQ PUSH2 0xFC JUMPI JUMPDEST PUSH0 PUSH0 REVERT JUMPDEST CALLVALUE DUP1 ISZERO PUSH2 0x89 JUMPI PUSH0 PUSH0 REVERT JUMPDEST POP PUSH2 0x92 PUSH2 0x19A JUMP JUMPDEST PUSH1 0x40 MLOAD PUSH2 0x9F SWAP2 SWAP1 PUSH2 0x563 JUMP JUMPDEST PUSH1 0x40 MLOAD DUP1 SWAP2 SUB SWAP1 RETURN JUMPDEST CALLVALUE DUP1 ISZERO PUSH2 0xB3 JUMPI PUSH0 PUSH0 REVERT JUMPDEST POP PUSH2 0xBC PUSH2 0x225 JUMP JUMPDEST PUSH1 0x40 MLOAD PUSH2 0xC9 SWAP2 SWAP1 PUSH2 0x59B JUMP JUMPDEST PUSH1 0x40 MLOAD DUP1 SWAP2 SUB SWAP1 RETURN JUMPDEST CALLVALUE DUP1 ISZERO PUSH2 0xDD JUMPI PUSH0 PUSH0 REVERT JUMPDEST POP PUSH2 0xE6 PUSH2 0x22C JUMP JUMPDEST PUSH1 0x40 MLOAD PUSH2 0xF3 SWAP2 SWAP1 PUSH2 0x59B JUMP JUMPDEST PUSH1 0x40 MLOAD DUP1 SWAP2 SUB SWAP1 RETURN JUMPDEST CALLVALUE DUP1 ISZERO PUSH2 0x107 JUMPI PUSH0 PUSH0 REVERT JUMPDEST POP PUSH2 0x110 PUSH2 0x232 JUMP JUMPDEST STOP JUMPDEST CALLVALUE DUP1 ISZERO PUSH2 0x11D JUMPI PUSH0 PUSH0 REVERT JUMPDEST POP PUSH2 0x126 PUSH2 0x3B4 JUMP JUMPDEST PUSH1 0x40 MLOAD PUSH2 0x133 SWAP2 SWAP1 PUSH2 0x59B JUMP JUMPDEST PUSH1 0x40 MLOAD DUP1 SWAP2 SUB SWAP1 RETURN JUMPDEST CALLVALUE DUP1 ISZERO PUSH2 0x147 JUMPI PUSH0 PUSH0 REVERT JUMPDEST POP PUSH2 0x150 PUSH2 0x3BA JUMP JUMPDEST PUSH1 0x40 MLOAD PUSH2 0x15D SWAP2 SWAP1 PUSH2 0x563 JUMP JUMPDEST PUSH1 0x40 MLOAD DUP1 SWAP2 SUB SWAP1 RETURN JUMPDEST CALLVALUE DUP1 ISZERO PUSH2 0x171 JUMPI PUSH0 PUSH0 REVERT JUMPDEST POP PUSH2 0x17A PUSH2 0x446 JUMP JUMPDEST PUSH1 0x40 MLOAD PUSH2 0x187 SWAP2 SWAP1 PUSH2 0x5F3 JUMP JUMPDEST PUSH1 0x40 MLOAD DUP1 SWAP2 SUB SWAP1 RETURN JUMPDEST PUSH2 0x198 PUSH2 0x46B JUMP JUMPDEST STOP JUMPDEST PUSH0 DUP1 SLOAD PUSH2 0x1A6 SWAP1 PUSH2 0x639 JUMP JUMPDEST DUP1 PUSH1 0x1F ADD PUSH1 0x20 DUP1 SWAP2 DIV MUL PUSH1 0x20 ADD PUSH1 0x40 MLOAD SWAP1 DUP2 ADD PUSH1 0x40 MSTORE DUP1 SWAP3 SWAP2 SWAP1 DUP2 DUP2 MSTORE PUSH1 0x20 ADD DUP3 DUP1 SLOAD PUSH2 0x1D2 SWAP1 PUSH2 0x639 JUMP JUMPDEST DUP1 ISZERO PUSH2 0x21D JUMPI DUP1 PUSH1 0x1F LT PUSH2 0x1F4 JUMPI PUSH2 0x100 DUP1 DUP4 SLOAD DIV MUL DUP4 MSTORE SWAP2 PUSH1 0x20 ADD SWAP2 PUSH2 0x21D JUMP JUMPDEST DUP3 ADD SWAP2 SWAP1 PUSH0 MSTORE PUSH1 0x20 PUSH0 KECCAK256 SWAP1 JUMPDEST DUP2 SLOAD DUP2 MSTORE SWAP1 PUSH1 0x1 ADD SWAP1 PUSH1 0x20 ADD DUP1 DUP4 GT PUSH2 0x200 JUMPI DUP3 SWAP1 SUB PUSH1 0x1F AND DUP3 ADD SWAP2 JUMPDEST POP POP POP POP POP DUP2 JUMP JUMPDEST PUSH0 SELFBALANCE SWAP1 POP SWAP1 JUMP JUMPDEST PUSH1 0x3 SLOAD DUP2 JUMP JUMPDEST PUSH1 0x4 PUSH0 SWAP1 SLOAD SWAP1 PUSH2 0x100 EXP SWAP1 DIV PUSH20 0xFFFFFFFFFFFFFFFFFFFFFFFFFFFFFFFFFFFFFFFF AND PUSH20 0xFFFFFFFFFFFFFFFFFFFFFFFFFFFFFFFFFFFFFFFF AND CALLER PUSH20 0xFFFFFFFFFFFFFFFFFFFFFFFFFFFFFFFFFFFFFFFF AND EQ PUSH2 0x2C1 JUMPI PUSH1 0x40 MLOAD PUSH32 0x8C379A000000000000000000000000000000000000000000000000000000000 DUP2 MSTORE PUSH1 0x4 ADD PUSH2 0x2B8 SWAP1 PUSH2 0x6B3 JUMP JUMPDEST PUSH1 0x40 MLOAD DUP1 SWAP2 SUB SWAP1 REVERT JUMPDEST PUSH1 0x2 SLOAD SELFBALANCE LT ISZERO PUSH2 0x306 JUMPI PUSH1 0x40 MLOAD PUSH32 0x8C379A000000000000000000000000000000000000000000000000000000000 DUP2 MSTORE PUSH1 0x4 ADD PUSH2 0x2FD SWAP1 PUSH2 0x741 JUMP JUMPDEST PUSH1 0x40 MLOAD DUP1 SWAP2 SUB SWAP1 REVERT JUMPDEST PUSH0 SELFBALANCE SWAP1 POP PUSH0 DUP2 GT PUSH2 0x34C JUMPI PUSH1 0x40 MLOAD PUSH32 0x8C379A000000000000000000000000000000000000000000000000000000000 DUP2 MSTORE PUSH1 0x4 ADD PUSH2 0x343 SWAP1 PUSH2 0x7A9 JUMP JUMPDEST PUSH1 0x40 MLOAD DUP1 SWAP2 SUB SWAP1 REVERT JUMPDEST PUSH1 0x4 PUSH0 SWAP1 SLOAD SWAP1 PUSH2 0x100 EXP SWAP1 DIV PUSH20 0xFFFFFFFFFFFFFFFFFFFFFFFFFFFFFFFFFFFFFFFF AND PUSH20 0xFFFFFFFFFFFFFFFFFFFFFFFFFFFFFFFFFFFFFFFF AND PUSH2 0x8FC DUP3 SWAP1 DUP2 ISZERO MUL SWAP1 PUSH1 0x40 MLOAD PUSH0 PUSH1 0x40 MLOAD DUP1 DUP4 SUB DUP2 DUP6 DUP9 DUP9 CALL SWAP4 POP POP POP POP ISZERO DUP1 ISZERO PUSH2 0x3B0 JUMPI RETURNDATASIZE PUSH0 PUSH0 RETURNDATACOPY RETURNDATASIZE PUSH0 REVERT JUMPDEST POP POP JUMP JUMPDEST PUSH1 0x2 SLOAD DUP2 JUMP JUMPDEST PUSH1 0x1 DUP1 SLOAD PUSH2 0x3C7 SWAP1 PUSH2 0x639 JUMP JUMPDEST DUP1 PUSH1 0x1F ADD PUSH1 0x20 DUP1 SWAP2 DIV MUL PUSH1 0x20 ADD PUSH1 0x40 MLOAD SWAP1 DUP2 ADD PUSH1 0x40 MSTORE DUP1 SWAP3 SWAP2 SWAP1 DUP2 DUP2 MSTORE PUSH1 0x20 ADD DUP3 DUP1 SLOAD PUSH2 0x3F3 SWAP1 PUSH2 0x639 JUMP JUMPDEST DUP1 ISZERO PUSH2 0x43E JUMPI DUP1 PUSH1 0x1F LT PUSH2 0x415 JUMPI PUSH2 0x100 DUP1 DUP4 SLOAD DIV MUL DUP4 MSTORE SWAP2 PUSH1 0x20 ADD SWAP2 PUSH2 0x43E JUMP JUMPDEST DUP3 ADD SWAP2 SWAP1 PUSH0 MSTORE PUSH1 0x20 PUSH0 KECCAK256 SWAP1 JUMPDEST DUP2 SLOAD DUP2 MSTORE SWAP1 PUSH1 0x1 ADD SWAP1 PUSH1 0x20 ADD DUP1 DUP4 GT PUSH2 0x421 JUMPI DUP3 SWAP1 SUB PUSH1 0x1F AND DUP3 ADD SWAP2 JUMPDEST POP POP POP POP POP DUP2 JUMP JUMPDEST PUSH1 0x4 PUSH0 SWAP1 SLOAD SWAP1 PUSH2 0x100 EXP SWAP1 DIV PUSH20 0xFFFFFFFFFFFFFFFFFFFFFFFFFFFFFFFFFFFFFFFF AND DUP2 JUMP JUMPDEST PUSH0 CALLVALUE GT PUSH2 0x4AD JUMPI PUSH1 0x40 MLOAD PUSH32 0x8C379A000000000000000000000000000000000000000000000000000000000 DUP2 MSTORE PUSH1 0x4 ADD PUSH2 0x4A4 SWAP1 PUSH2 0x811 JUMP JUMPDEST PUSH1 0x40 MLOAD DUP1 SWAP2 SUB SWAP1 REVERT JUMPDEST PUSH1 0x3 SLOAD TIMESTAMP LT PUSH2 0x4F1 JUMPI PUSH1 0x40 MLOAD PUSH32 0x8C379A000000000000000000000000000000000000000000000000000000000 DUP2 MSTORE PUSH1 0x4 ADD PUSH2 0x4E8 SWAP1 PUSH2 0x879 JUMP JUMPDEST PUSH1 0x40 MLOAD DUP1 SWAP2 SUB SWAP1 REVERT JUMPDEST JUMP JUMPDEST PUSH0 DUP2 MLOAD SWAP1 POP SWAP2 SWAP1 POP JUMP JUMPDEST PUSH0 DUP3 DUP3 MSTORE PUSH1 0x20 DUP3 ADD SWAP1 POP SWAP3 SWAP2 POP POP JUMP JUMPDEST DUP3 DUP2 DUP4 MCOPY PUSH0 DUP4 DUP4 ADD MSTORE POP POP POP JUMP JUMPDEST PUSH0 PUSH1 0x1F NOT PUSH1 0x1F DUP4 ADD AND SWAP1 POP SWAP2 SWAP1 POP JUMP JUMPDEST PUSH0 PUSH2 0x535 DUP3 PUSH2 0x4F3 JUMP JUMPDEST PUSH2 0x53F DUP2 DUP6 PUSH2 0x4FD JUMP JUMPDEST SWAP4 POP PUSH2 0x54F DUP2 DUP6 PUSH1 0x20 DUP7 ADD PUSH2 0x50D JUMP JUMPDEST PUSH2 0x558 DUP2 PUSH2 0x51B JUMP JUMPDEST DUP5 ADD SWAP2 POP POP SWAP3 SWAP2 POP POP JUMP JUMPDEST PUSH0 PUSH1 0x20 DUP3 ADD SWAP1 POP DUP2 DUP2 SUB PUSH0 DUP4 ADD MSTORE PUSH2 0x57B DUP2 DUP5 PUSH2 0x52B JUMP JUMPDEST SWAP1 POP SWAP3 SWAP2 POP POP JUMP JUMPDEST PUSH0 DUP2 SWAP1 POP SWAP2 SWAP1 POP JUMP JUMPDEST PUSH2 0x595 DUP2 PUSH2 0x583 JUMP JUMPDEST DUP3 MSTORE POP POP JUMP JUMPDEST PUSH0 PUSH1 0x20 DUP3 ADD SWAP1 POP PUSH2 0x5AE PUSH0 DUP4 ADD DUP5 PUSH2 0x58C JUMP JUMPDEST SWAP3 SWAP2 POP POP JUMP JUMPDEST PUSH0 PUSH20 0xFFFFFFFFFFFFFFFFFFFFFFFFFFFFFFFFFFFFFFFF DUP3 AND SWAP1 POP SWAP2 SWAP1 POP JUMP JUMPDEST PUSH0 PUSH2 0x5DD DUP3 PUSH2 0x5B4 JUMP JUMPDEST SWAP1 POP SWAP2 SWAP1 POP JUMP JUMPDEST PUSH2 0x5ED DUP2 PUSH2 0x5D3 JUMP JUMPDEST DUP3 MSTORE POP POP JUMP JUMPDEST PUSH0 PUSH1 0x20 DUP3 ADD SWAP1 POP PUSH2 0x606 PUSH0 DUP4 ADD DUP5 PUSH2 0x5E4 JUMP JUMPDEST SWAP3 SWAP2 POP POP JUMP JUMPDEST PUSH32 0x4E487B7100000000000000000000000000000000000000000000000000000000 PUSH0 MSTORE PUSH1 0x22 PUSH1 0x4 MSTORE PUSH1 0x24 PUSH0 REVERT JUMPDEST PUSH0 PUSH1 0x2 DUP3 DIV SWAP1 POP PUSH1 0x1 DUP3 AND DUP1 PUSH2 0x650 JUMPI PUSH1 0x7F DUP3 AND SWAP2 POP JUMPDEST PUSH1 0x20 DUP3 LT DUP2 SUB PUSH2 0x663 JUMPI PUSH2 0x662 PUSH2 0x60C JUMP JUMPDEST JUMPDEST POP SWAP2 SWAP1 POP JUMP JUMPDEST PUSH32 0x4265636F6D6520746865206F776E657220584400000000000000000000000000 PUSH0 DUP3 ADD MSTORE POP JUMP JUMPDEST PUSH0 PUSH2 0x69D PUSH1 0x13 DUP4 PUSH2 0x4FD JUMP JUMPDEST SWAP2 POP PUSH2 0x6A8 DUP3 PUSH2 0x669 JUMP JUMPDEST PUSH1 0x20 DUP3 ADD SWAP1 POP SWAP2 SWAP1 POP JUMP JUMPDEST PUSH0 PUSH1 0x20 DUP3 ADD SWAP1 POP DUP2 DUP2 SUB PUSH0 DUP4 ADD MSTORE PUSH2 0x6CA DUP2 PUSH2 0x691 JUMP JUMPDEST SWAP1 POP SWAP2 SWAP1 POP JUMP JUMPDEST PUSH32 0x596F757220476F616C206973206E6F7420726561636865642079657420647564 PUSH0 DUP3 ADD MSTORE PUSH32 0x652E000000000000000000000000000000000000000000000000000000000000 PUSH1 0x20 DUP3 ADD MSTORE POP JUMP JUMPDEST PUSH0 PUSH2 0x72B PUSH1 0x22 DUP4 PUSH2 0x4FD JUMP JUMPDEST SWAP2 POP PUSH2 0x736 DUP3 PUSH2 0x6D1 JUMP JUMPDEST PUSH1 0x40 DUP3 ADD SWAP1 POP SWAP2 SWAP1 POP JUMP JUMPDEST PUSH0 PUSH1 0x20 DUP3 ADD SWAP1 POP DUP2 DUP2 SUB PUSH0 DUP4 ADD MSTORE PUSH2 0x758 DUP2 PUSH2 0x71F JUMP JUMPDEST SWAP1 POP SWAP2 SWAP1 POP JUMP JUMPDEST PUSH32 0x546865726573206E6F20206D6F6E6579206C6566742E00000000000000000000 PUSH0 DUP3 ADD MSTORE POP JUMP JUMPDEST PUSH0 PUSH2 0x793 PUSH1 0x16 DUP4 PUSH2 0x4FD JUMP JUMPDEST SWAP2 POP PUSH2 0x79E DUP3 PUSH2 0x75F JUMP JUMPDEST PUSH1 0x20 DUP3 ADD SWAP1 POP SWAP2 SWAP1 POP JUMP JUMPDEST PUSH0 PUSH1 0x20 DUP3 ADD SWAP1 POP DUP2 DUP2 SUB PUSH0 DUP4 ADD MSTORE PUSH2 0x7C0 DUP2 PUSH2 0x787 JUMP JUMPDEST SWAP1 POP SWAP2 SWAP1 POP JUMP JUMPDEST PUSH32 0x47657420736F6D65206D6F6E657920706F6F72206775792E0000000000000000 PUSH0 DUP3 ADD MSTORE POP JUMP JUMPDEST PUSH0 PUSH2 0x7FB PUSH1 0x18 DUP4 PUSH2 0x4FD JUMP JUMPDEST SWAP2 POP PUSH2 0x806 DUP3 PUSH2 0x7C7 JUMP JUMPDEST PUSH1 0x20 DUP3 ADD SWAP1 POP SWAP2 SWAP1 POP JUMP JUMPDEST PUSH0 PUSH1 0x20 DUP3 ADD SWAP1 POP DUP2 DUP2 SUB PUSH0 DUP4 ADD MSTORE PUSH2 0x828 DUP2 PUSH2 0x7EF JUMP JUMPDEST SWAP1 POP SWAP2 SWAP1 POP JUMP JUMPDEST PUSH32 0x54696D652068617320656E6465642E0000000000000000000000000000000000 PUSH0 DUP3 ADD MSTORE POP JUMP JUMPDEST PUSH0 PUSH2 0x863 PUSH1 0xF DUP4 PUSH2 0x4FD JUMP JUMPDEST SWAP2 POP PUSH2 0x86E DUP3 PUSH2 0x82F JUMP JUMPDEST PUSH1 0x20 DUP3 ADD SWAP1 POP SWAP2 SWAP1 POP JUMP JUMPDEST PUSH0 PUSH1 0x20 DUP3 ADD SWAP1 POP DUP2 DUP2 SUB PUSH0 DUP4 ADD MSTORE PUSH2 0x890 DUP2 PUSH2 0x857 JUMP JUMPDEST SWAP1 POP SWAP2 SWAP1 POP JUMP INVALID LOG2 PUSH5 0x6970667358 0x22 SLT KECCAK256 0xC3 0xD2 PUSH4 0x44F9BBBF DIV PUSH7 0xC6A30C7BA3F772 BALANCE JUMPI EXP SWAP6 0xB8 NUMBER 0x28 0x4D 0xBA SIGNEXTEND 0xB2 DUP5 CALLDATASIZE 0xD2 PUSH28 0xE164736F6C634300081E003300000000000000000000000000000000 "
		},
		"gasEstimates": {
			"creation": {
				"codeDepositCost": "450600",
				"executionCost": "infinite",
				"totalCost": "infinite"
			},
			"external": {
				"deadline()": "2470",
				"description()": "infinite",
				"fund()": "2612",
				"getBalance()": "357",
				"goal()": "2425",
				"name()": "infinite",
				"owner()": "2552",
				"withdraw()": "infinite"
			}
		},
		"methodIdentifiers": {
			"deadline()": "29dcb0cf",
			"description()": "7284e416",
			"fund()": "b60d4288",
			"getBalance()": "12065fe0",
			"goal()": "40193883",
			"name()": "06fdde03",
			"owner()": "8da5cb5b",
			"withdraw()": "3ccfd60b"
		}
	},
	"abi": [
		{
			"inputs": [
				{
					"internalType": "string",
					"name": "_name",
					"type": "string"
				},
				{
					"internalType": "string",
					"name": "_description",
					"type": "string"
				},
				{
					"internalType": "uint256",
					"name": "_goal",
					"type": "uint256"
				},
				{
					"internalType": "uint256",
					"name": "_duration",
					"type": "uint256"
				}
			],
			"stateMutability": "nonpayable",
			"type": "constructor"
		},
		{
			"inputs": [],
			"name": "deadline",
			"outputs": [
				{
					"internalType": "uint256",
					"name": "",
					"type": "uint256"
				}
			],
			"stateMutability": "view",
			"type": "function"
		},
		{
			"inputs": [],
			"name": "description",
			"outputs": [
				{
					"internalType": "string",
					"name": "",
					"type": "string"
				}
			],
			"stateMutability": "view",
			"type": "function"
		},
		{
			"inputs": [],
			"name": "fund",
			"outputs": [],
			"stateMutability": "payable",
			"type": "function"
		},
		{
			"inputs": [],
			"name": "getBalance",
			"outputs": [
				{
					"internalType": "uint256",
					"name": "",
					"type": "uint256"
				}
			],
			"stateMutability": "view",
			"type": "function"
		},
		{
			"inputs": [],
			"name": "goal",
			"outputs": [
				{
					"internalType": "uint256",
					"name": "",
					"type": "uint256"
				}
			],
			"stateMutability": "view",
			"type": "function"
		},
		{
			"inputs": [],
			"name": "name",
			"outputs": [
				{
					"internalType": "string",
					"name": "",
					"type": "string"
				}
			],
			"stateMutability": "view",
			"type": "function"
		},
		{
			"inputs": [],
			"name": "owner",
			"outputs": [
				{
					"internalType": "address",
					"name": "",
					"type": "address"
				}
			],
			"stateMutability": "view",
			"type": "function"
		},
		{
			"inputs": [],
			"name": "withdraw",
			"outputs": [],
			"stateMutability": "nonpayable",
			"type": "function"
		}
	]
}