{
	"data": {
		"bytecode": {
			"linkReferences": {},
			"object": "610160604052348015610010575f80fd5b5060405161160e38038061160e8339818101604052810190610032919061025d565b858073ffffffffffffffffffffffffffffffffffffffff1660808173ffffffffffffffffffffffffffffffffffffffff1681525050508460a081815250508573ffffffffffffffffffffffffffffffffffffffff1660c08173ffffffffffffffffffffffffffffffffffffffff16815250508360e081815250508267ffffffffffffffff166101008167ffffffffffffffff16815250508163ffffffff166101208163ffffffff16815250505f600160146101000a81548160ff02191690836001811115610103576101026102e6565b5b021790555042600281905550806101408181525050505050505050610313565b5f80fd5b5f73ffffffffffffffffffffffffffffffffffffffff82169050919050565b5f61015082610127565b9050919050565b61016081610146565b811461016a575f80fd5b50565b5f8151905061017b81610157565b92915050565b5f819050919050565b61019381610181565b811461019d575f80fd5b50565b5f815190506101ae8161018a565b92915050565b5f819050919050565b6101c6816101b4565b81146101d0575f80fd5b50565b5f815190506101e1816101bd565b92915050565b5f67ffffffffffffffff82169050919050565b610203816101e7565b811461020d575f80fd5b50565b5f8151905061021e816101fa565b92915050565b5f63ffffffff82169050919050565b61023c81610224565b8114610246575f80fd5b50565b5f8151905061025781610233565b92915050565b5f805f805f8060c0878903121561027757610276610123565b5b5f61028489828a0161016d565b965050602061029589828a016101a0565b95505060406102a689828a016101d3565b94505060606102b789828a01610210565b93505060806102c889828a01610249565b92505060a06102d989828a016101a0565b9150509295509295509295565b7f4e487b71000000000000000000000000000000000000000000000000000000005f52602160045260245ffd5b60805160a05160c05160e05161010051610120516101405161129c6103725f395f61069401525f61057701525f61055401525f61053301525f6104f701525f81816102dc015261073901525f818161021c0152610270015261129c5ff3fe608060405260043610610085575f3560e01c806350c7d12b1161005857806350c7d12b1461010d5780636e04ff0d14610137578063ced72f8714610174578063e55ae4e81461019e578063f2c9ecd8146101da57610085565b8063115cbaf5146100895780631fe543e3146100b35780632cfcc539146100db5780634585e33b146100e5575b5f80fd5b348015610094575f80fd5b5061009d610204565b6040516100aa9190610ae6565b60405180910390f35b3480156100be575f80fd5b506100d960048036038101906100d49190610c93565b61021a565b005b6100e36102da565b005b3480156100f0575f80fd5b5061010b60048036038101906101069190610d46565b610444565b005b348015610118575f80fd5b5061012161062d565b60405161012e9190610dd0565b60405180910390f35b348015610142575f80fd5b5061015d60048036038101906101589190610e99565b610655565b60405161016b929190610f5a565b60405180910390f35b34801561017f575f80fd5b50610188610736565b6040516101959190610f97565b60405180910390f35b3480156101a9575f80fd5b506101c460048036038101906101bf9190610fb0565b61075d565b6040516101d19190610dd0565b60405180910390f35b3480156101e5575f80fd5b506101ee6107a0565b6040516101fb9190610f97565b60405180910390f35b5f600160149054906101000a900460ff16905090565b7f000000000000000000000000000000000000000000000000000000000000000073ffffffffffffffffffffffffffffffffffffffff163373ffffffffffffffffffffffffffffffffffffffff16146102cc57337f00000000000000000000000000000000000000000000000000000000000000006040517f1cf993f40000000000000000000000000000000000000000000000000000000081526004016102c3929190610fdb565b60405180910390fd5b6102d682826107ae565b5050565b7f0000000000000000000000000000000000000000000000000000000000000000341015610334576040517f840ba71200000000000000000000000000000000000000000000000000000000815260040160405180910390fd5b5f600181111561034757610346610a73565b5b600160149054906101000a900460ff16600181111561036957610368610a73565b5b146103a0576040517fddafad9800000000000000000000000000000000000000000000000000000000815260040160405180910390fd5b5f33908060018154018082558091505060019003905f5260205f20015f9091909190916101000a81548173ffffffffffffffffffffffffffffffffffffffff021916908373ffffffffffffffffffffffffffffffffffffffff1602179055503373ffffffffffffffffffffffffffffffffffffffff167f0805e1d667bddb8a95f0f09880cf94f403fb596ce79928d9f29b74203ba284d460405160405180910390a2565b5f61045c60405180602001604052805f815250610655565b509050806104ca57475f80549050600160149054906101000a900460ff16600181111561048c5761048b610a73565b5b6040517f54bb54100000000000000000000000000000000000000000000000000000000081526004016104c193929190611002565b60405180910390fd5b60018060146101000a81548160ff021916908360018111156104ef576104ee610a73565b5b02179055505f7f000000000000000000000000000000000000000000000000000000000000000073ffffffffffffffffffffffffffffffffffffffff16635d3b1d307f00000000000000000000000000000000000000000000000000000000000000007f000000000000000000000000000000000000000000000000000000000000000060037f000000000000000000000000000000000000000000000000000000000000000060016040518663ffffffff1660e01b81526004016105b89594939291906110ab565b6020604051808303815f875af11580156105d4573d5f803e3d5ffd5b505050506040513d601f19601f820116820180604052508101906105f89190611110565b9050807fcd6e45c8998311cab7e9d4385596cac867e20a0587194b954fa3a731c93ce78b60405160405180910390a250505050565b5f60015f9054906101000a900473ffffffffffffffffffffffffffffffffffffffff16905090565b5f60605f600160149054906101000a900460ff16600181111561067b5761067a610a73565b5b5f600181111561068e5761068d610a73565b5b1490505f7f0000000000000000000000000000000000000000000000000000000000000000600254426106c19190611168565b1190505f805f805490501190505f80471190508280156106de5750835b80156106e75750805b80156106f05750815b9550856040518060400160405280600381526020017f30783000000000000000000000000000000000000000000000000000000000008152509550955050505050915091565b5f7f0000000000000000000000000000000000000000000000000000000000000000905090565b5f8082815481106107715761077061119b565b5b905f5260205f20015f9054906101000a900473ffffffffffffffffffffffffffffffffffffffff169050919050565b5f600163ffffffff16905090565b5f8080549050825f815181106107c7576107c661119b565b5b60200260200101516107d991906111f5565b90505f8082815481106107ef576107ee61119b565b5b905f5260205f20015f9054906101000a900473ffffffffffffffffffffffffffffffffffffffff1690508060015f6101000a81548173ffffffffffffffffffffffffffffffffffffffff021916908373ffffffffffffffffffffffffffffffffffffffff1602179055505f600160146101000a81548160ff0219169083600181111561087e5761087d610a73565b5b02179055505f67ffffffffffffffff81111561089d5761089c610b57565b5b6040519080825280602002602001820160405280156108cb5781602001602082028036833780820191505090505b505f90805190602001906108e09291906109d1565b50426002819055505f8173ffffffffffffffffffffffffffffffffffffffff164760405161090d90611252565b5f6040518083038185875af1925050503d805f8114610947576040519150601f19603f3d011682016040523d82523d5f602084013e61094c565b606091505b5050905080610987576040517f90b8ec1800000000000000000000000000000000000000000000000000000000815260040160405180910390fd5b8173ffffffffffffffffffffffffffffffffffffffff167f5b690ec4a06fe979403046eaeea5b3ce38524683c3001f662c8b5a829632f7df60405160405180910390a25050505050565b828054828255905f5260205f20908101928215610a47579160200282015b82811115610a46578251825f6101000a81548173ffffffffffffffffffffffffffffffffffffffff021916908373ffffffffffffffffffffffffffffffffffffffff160217905550916020019190600101906109ef565b5b509050610a549190610a58565b5090565b5b80821115610a6f575f815f905550600101610a59565b5090565b7f4e487b71000000000000000000000000000000000000000000000000000000005f52602160045260245ffd5b60028110610ab157610ab0610a73565b5b50565b5f819050610ac182610aa0565b919050565b5f610ad082610ab4565b9050919050565b610ae081610ac6565b82525050565b5f602082019050610af95f830184610ad7565b92915050565b5f604051905090565b5f80fd5b5f80fd5b5f819050919050565b610b2281610b10565b8114610b2c575f80fd5b50565b5f81359050610b3d81610b19565b92915050565b5f80fd5b5f601f19601f8301169050919050565b7f4e487b71000000000000000000000000000000000000000000000000000000005f52604160045260245ffd5b610b8d82610b47565b810181811067ffffffffffffffff82111715610bac57610bab610b57565b5b80604052505050565b5f610bbe610aff565b9050610bca8282610b84565b919050565b5f67ffffffffffffffff821115610be957610be8610b57565b5b602082029050602081019050919050565b5f80fd5b5f610c10610c0b84610bcf565b610bb5565b90508083825260208201905060208402830185811115610c3357610c32610bfa565b5b835b81811015610c5c5780610c488882610b2f565b845260208401935050602081019050610c35565b5050509392505050565b5f82601f830112610c7a57610c79610b43565b5b8135610c8a848260208601610bfe565b91505092915050565b5f8060408385031215610ca957610ca8610b08565b5b5f610cb685828601610b2f565b925050602083013567ffffffffffffffff811115610cd757610cd6610b0c565b5b610ce385828601610c66565b9150509250929050565b5f80fd5b5f8083601f840112610d0657610d05610b43565b5b8235905067ffffffffffffffff811115610d2357610d22610ced565b5b602083019150836001820283011115610d3f57610d3e610bfa565b5b9250929050565b5f8060208385031215610d5c57610d5b610b08565b5b5f83013567ffffffffffffffff811115610d7957610d78610b0c565b5b610d8585828601610cf1565b92509250509250929050565b5f73ffffffffffffffffffffffffffffffffffffffff82169050919050565b5f610dba82610d91565b9050919050565b610dca81610db0565b82525050565b5f602082019050610de35f830184610dc1565b92915050565b5f80fd5b5f67ffffffffffffffff821115610e0757610e06610b57565b5b610e1082610b47565b9050602081019050919050565b828183375f83830152505050565b5f610e3d610e3884610ded565b610bb5565b905082815260208101848484011115610e5957610e58610de9565b5b610e64848285610e1d565b509392505050565b5f82601f830112610e8057610e7f610b43565b5b8135610e90848260208601610e2b565b91505092915050565b5f60208284031215610eae57610ead610b08565b5b5f82013567ffffffffffffffff811115610ecb57610eca610b0c565b5b610ed784828501610e6c565b91505092915050565b5f8115159050919050565b610ef481610ee0565b82525050565b5f81519050919050565b5f82825260208201905092915050565b8281835e5f83830152505050565b5f610f2c82610efa565b610f368185610f04565b9350610f46818560208601610f14565b610f4f81610b47565b840191505092915050565b5f604082019050610f6d5f830185610eeb565b8181036020830152610f7f8184610f22565b90509392505050565b610f9181610b10565b82525050565b5f602082019050610faa5f830184610f88565b92915050565b5f60208284031215610fc557610fc4610b08565b5b5f610fd284828501610b2f565b91505092915050565b5f604082019050610fee5f830185610dc1565b610ffb6020830184610dc1565b9392505050565b5f6060820190506110155f830186610f88565b6110226020830185610f88565b61102f6040830184610f88565b949350505050565b5f819050919050565b61104981611037565b82525050565b5f67ffffffffffffffff82169050919050565b61106b8161104f565b82525050565b5f61ffff82169050919050565b61108781611071565b82525050565b5f63ffffffff82169050919050565b6110a58161108d565b82525050565b5f60a0820190506110be5f830188611040565b6110cb6020830187611062565b6110d8604083018661107e565b6110e5606083018561109c565b6110f2608083018461109c565b9695505050505050565b5f8151905061110a81610b19565b92915050565b5f6020828403121561112557611124610b08565b5b5f611132848285016110fc565b91505092915050565b7f4e487b71000000000000000000000000000000000000000000000000000000005f52601160045260245ffd5b5f61117282610b10565b915061117d83610b10565b92508282039050818111156111955761119461113b565b5b92915050565b7f4e487b71000000000000000000000000000000000000000000000000000000005f52603260045260245ffd5b7f4e487b71000000000000000000000000000000000000000000000000000000005f52601260045260245ffd5b5f6111ff82610b10565b915061120a83610b10565b92508261121a576112196111c8565b5b828206905092915050565b5f81905092915050565b50565b5f61123d5f83611225565b91506112488261122f565b5f82019050919050565b5f61125c82611232565b915081905091905056fea2646970667358221220ea179e21fca8940776108a1573c0935170da23a89dc662e2debb4922030fb76664736f6c634300081a0033",
			"opcodes": "PUSH2 0x160 PUSH1 0x40 MSTORE CALLVALUE DUP1 ISZERO PUSH2 0x10 JUMPI PUSH0 DUP1 REVERT JUMPDEST POP PUSH1 0x40 MLOAD PUSH2 0x160E CODESIZE SUB DUP1 PUSH2 0x160E DUP4 CODECOPY DUP2 DUP2 ADD PUSH1 0x40 MSTORE DUP2 ADD SWAP1 PUSH2 0x32 SWAP2 SWAP1 PUSH2 0x25D JUMP JUMPDEST DUP6 DUP1 PUSH20 0xFFFFFFFFFFFFFFFFFFFFFFFFFFFFFFFFFFFFFFFF AND PUSH1 0x80 DUP2 PUSH20 0xFFFFFFFFFFFFFFFFFFFFFFFFFFFFFFFFFFFFFFFF AND DUP2 MSTORE POP POP POP DUP5 PUSH1 0xA0 DUP2 DUP2 MSTORE POP POP DUP6 PUSH20 0xFFFFFFFFFFFFFFFFFFFFFFFFFFFFFFFFFFFFFFFF AND PUSH1 0xC0 DUP2 PUSH20 0xFFFFFFFFFFFFFFFFFFFFFFFFFFFFFFFFFFFFFFFF AND DUP2 MSTORE POP POP DUP4 PUSH1 0xE0 DUP2 DUP2 MSTORE POP POP DUP3 PUSH8 0xFFFFFFFFFFFFFFFF AND PUSH2 0x100 DUP2 PUSH8 0xFFFFFFFFFFFFFFFF AND DUP2 MSTORE POP POP DUP2 PUSH4 0xFFFFFFFF AND PUSH2 0x120 DUP2 PUSH4 0xFFFFFFFF AND DUP2 MSTORE POP POP PUSH0 PUSH1 0x1 PUSH1 0x14 PUSH2 0x100 EXP DUP2 SLOAD DUP2 PUSH1 0xFF MUL NOT AND SWAP1 DUP4 PUSH1 0x1 DUP2 GT ISZERO PUSH2 0x103 JUMPI PUSH2 0x102 PUSH2 0x2E6 JUMP JUMPDEST JUMPDEST MUL OR SWAP1 SSTORE POP TIMESTAMP PUSH1 0x2 DUP2 SWAP1 SSTORE POP DUP1 PUSH2 0x140 DUP2 DUP2 MSTORE POP POP POP POP POP POP POP POP PUSH2 0x313 JUMP JUMPDEST PUSH0 DUP1 REVERT JUMPDEST PUSH0 PUSH20 0xFFFFFFFFFFFFFFFFFFFFFFFFFFFFFFFFFFFFFFFF DUP3 AND SWAP1 POP SWAP2 SWAP1 POP JUMP JUMPDEST PUSH0 PUSH2 0x150 DUP3 PUSH2 0x127 JUMP JUMPDEST SWAP1 POP SWAP2 SWAP1 POP JUMP JUMPDEST PUSH2 0x160 DUP2 PUSH2 0x146 JUMP JUMPDEST DUP2 EQ PUSH2 0x16A JUMPI PUSH0 DUP1 REVERT JUMPDEST POP JUMP JUMPDEST PUSH0 DUP2 MLOAD SWAP1 POP PUSH2 0x17B DUP2 PUSH2 0x157 JUMP JUMPDEST SWAP3 SWAP2 POP POP JUMP JUMPDEST PUSH0 DUP2 SWAP1 POP SWAP2 SWAP1 POP JUMP JUMPDEST PUSH2 0x193 DUP2 PUSH2 0x181 JUMP JUMPDEST DUP2 EQ PUSH2 0x19D JUMPI PUSH0 DUP1 REVERT JUMPDEST POP JUMP JUMPDEST PUSH0 DUP2 MLOAD SWAP1 POP PUSH2 0x1AE DUP2 PUSH2 0x18A JUMP JUMPDEST SWAP3 SWAP2 POP POP JUMP JUMPDEST PUSH0 DUP2 SWAP1 POP SWAP2 SWAP1 POP JUMP JUMPDEST PUSH2 0x1C6 DUP2 PUSH2 0x1B4 JUMP JUMPDEST DUP2 EQ PUSH2 0x1D0 JUMPI PUSH0 DUP1 REVERT JUMPDEST POP JUMP JUMPDEST PUSH0 DUP2 MLOAD SWAP1 POP PUSH2 0x1E1 DUP2 PUSH2 0x1BD JUMP JUMPDEST SWAP3 SWAP2 POP POP JUMP JUMPDEST PUSH0 PUSH8 0xFFFFFFFFFFFFFFFF DUP3 AND SWAP1 POP SWAP2 SWAP1 POP JUMP JUMPDEST PUSH2 0x203 DUP2 PUSH2 0x1E7 JUMP JUMPDEST DUP2 EQ PUSH2 0x20D JUMPI PUSH0 DUP1 REVERT JUMPDEST POP JUMP JUMPDEST PUSH0 DUP2 MLOAD SWAP1 POP PUSH2 0x21E DUP2 PUSH2 0x1FA JUMP JUMPDEST SWAP3 SWAP2 POP POP JUMP JUMPDEST PUSH0 PUSH4 0xFFFFFFFF DUP3 AND SWAP1 POP SWAP2 SWAP1 POP JUMP JUMPDEST PUSH2 0x23C DUP2 PUSH2 0x224 JUMP JUMPDEST DUP2 EQ PUSH2 0x246 JUMPI PUSH0 DUP1 REVERT JUMPDEST POP JUMP JUMPDEST PUSH0 DUP2 MLOAD SWAP1 POP PUSH2 0x257 DUP2 PUSH2 0x233 JUMP JUMPDEST SWAP3 SWAP2 POP POP JUMP JUMPDEST PUSH0 DUP1 PUSH0 DUP1 PUSH0 DUP1 PUSH1 0xC0 DUP8 DUP10 SUB SLT ISZERO PUSH2 0x277 JUMPI PUSH2 0x276 PUSH2 0x123 JUMP JUMPDEST JUMPDEST PUSH0 PUSH2 0x284 DUP10 DUP3 DUP11 ADD PUSH2 0x16D JUMP JUMPDEST SWAP7 POP POP PUSH1 0x20 PUSH2 0x295 DUP10 DUP3 DUP11 ADD PUSH2 0x1A0 JUMP JUMPDEST SWAP6 POP POP PUSH1 0x40 PUSH2 0x2A6 DUP10 DUP3 DUP11 ADD PUSH2 0x1D3 JUMP JUMPDEST SWAP5 POP POP PUSH1 0x60 PUSH2 0x2B7 DUP10 DUP3 DUP11 ADD PUSH2 0x210 JUMP JUMPDEST SWAP4 POP POP PUSH1 0x80 PUSH2 0x2C8 DUP10 DUP3 DUP11 ADD PUSH2 0x249 JUMP JUMPDEST SWAP3 POP POP PUSH1 0xA0 PUSH2 0x2D9 DUP10 DUP3 DUP11 ADD PUSH2 0x1A0 JUMP JUMPDEST SWAP2 POP POP SWAP3 SWAP6 POP SWAP3 SWAP6 POP SWAP3 SWAP6 JUMP JUMPDEST PUSH32 0x4E487B7100000000000000000000000000000000000000000000000000000000 PUSH0 MSTORE PUSH1 0x21 PUSH1 0x4 MSTORE PUSH1 0x24 PUSH0 REVERT JUMPDEST PUSH1 0x80 MLOAD PUSH1 0xA0 MLOAD PUSH1 0xC0 MLOAD PUSH1 0xE0 MLOAD PUSH2 0x100 MLOAD PUSH2 0x120 MLOAD PUSH2 0x140 MLOAD PUSH2 0x129C PUSH2 0x372 PUSH0 CODECOPY PUSH0 PUSH2 0x694 ADD MSTORE PUSH0 PUSH2 0x577 ADD MSTORE PUSH0 PUSH2 0x554 ADD MSTORE PUSH0 PUSH2 0x533 ADD MSTORE PUSH0 PUSH2 0x4F7 ADD MSTORE PUSH0 DUP2 DUP2 PUSH2 0x2DC ADD MSTORE PUSH2 0x739 ADD MSTORE PUSH0 DUP2 DUP2 PUSH2 0x21C ADD MSTORE PUSH2 0x270 ADD MSTORE PUSH2 0x129C PUSH0 RETURN INVALID PUSH1 0x80 PUSH1 0x40 MSTORE PUSH1 0x4 CALLDATASIZE LT PUSH2 0x85 JUMPI PUSH0 CALLDATALOAD PUSH1 0xE0 SHR DUP1 PUSH4 0x50C7D12B GT PUSH2 0x58 JUMPI DUP1 PUSH4 0x50C7D12B EQ PUSH2 0x10D JUMPI DUP1 PUSH4 0x6E04FF0D EQ PUSH2 0x137 JUMPI DUP1 PUSH4 0xCED72F87 EQ PUSH2 0x174 JUMPI DUP1 PUSH4 0xE55AE4E8 EQ PUSH2 0x19E JUMPI DUP1 PUSH4 0xF2C9ECD8 EQ PUSH2 0x1DA JUMPI PUSH2 0x85 JUMP JUMPDEST DUP1 PUSH4 0x115CBAF5 EQ PUSH2 0x89 JUMPI DUP1 PUSH4 0x1FE543E3 EQ PUSH2 0xB3 JUMPI DUP1 PUSH4 0x2CFCC539 EQ PUSH2 0xDB JUMPI DUP1 PUSH4 0x4585E33B EQ PUSH2 0xE5 JUMPI JUMPDEST PUSH0 DUP1 REVERT JUMPDEST CALLVALUE DUP1 ISZERO PUSH2 0x94 JUMPI PUSH0 DUP1 REVERT JUMPDEST POP PUSH2 0x9D PUSH2 0x204 JUMP JUMPDEST PUSH1 0x40 MLOAD PUSH2 0xAA SWAP2 SWAP1 PUSH2 0xAE6 JUMP JUMPDEST PUSH1 0x40 MLOAD DUP1 SWAP2 SUB SWAP1 RETURN JUMPDEST CALLVALUE DUP1 ISZERO PUSH2 0xBE JUMPI PUSH0 DUP1 REVERT JUMPDEST POP PUSH2 0xD9 PUSH1 0x4 DUP1 CALLDATASIZE SUB DUP2 ADD SWAP1 PUSH2 0xD4 SWAP2 SWAP1 PUSH2 0xC93 JUMP JUMPDEST PUSH2 0x21A JUMP JUMPDEST STOP JUMPDEST PUSH2 0xE3 PUSH2 0x2DA JUMP JUMPDEST STOP JUMPDEST CALLVALUE DUP1 ISZERO PUSH2 0xF0 JUMPI PUSH0 DUP1 REVERT JUMPDEST POP PUSH2 0x10B PUSH1 0x4 DUP1 CALLDATASIZE SUB DUP2 ADD SWAP1 PUSH2 0x106 SWAP2 SWAP1 PUSH2 0xD46 JUMP JUMPDEST PUSH2 0x444 JUMP JUMPDEST STOP JUMPDEST CALLVALUE DUP1 ISZERO PUSH2 0x118 JUMPI PUSH0 DUP1 REVERT JUMPDEST POP PUSH2 0x121 PUSH2 0x62D JUMP JUMPDEST PUSH1 0x40 MLOAD PUSH2 0x12E SWAP2 SWAP1 PUSH2 0xDD0 JUMP JUMPDEST PUSH1 0x40 MLOAD DUP1 SWAP2 SUB SWAP1 RETURN JUMPDEST CALLVALUE DUP1 ISZERO PUSH2 0x142 JUMPI PUSH0 DUP1 REVERT JUMPDEST POP PUSH2 0x15D PUSH1 0x4 DUP1 CALLDATASIZE SUB DUP2 ADD SWAP1 PUSH2 0x158 SWAP2 SWAP1 PUSH2 0xE99 JUMP JUMPDEST PUSH2 0x655 JUMP JUMPDEST PUSH1 0x40 MLOAD PUSH2 0x16B SWAP3 SWAP2 SWAP1 PUSH2 0xF5A JUMP JUMPDEST PUSH1 0x40 MLOAD DUP1 SWAP2 SUB SWAP1 RETURN JUMPDEST CALLVALUE DUP1 ISZERO PUSH2 0x17F JUMPI PUSH0 DUP1 REVERT JUMPDEST POP PUSH2 0x188 PUSH2 0x736 JUMP JUMPDEST PUSH1 0x40 MLOAD PUSH2 0x195 SWAP2 SWAP1 PUSH2 0xF97 JUMP JUMPDEST PUSH1 0x40 MLOAD DUP1 SWAP2 SUB SWAP1 RETURN JUMPDEST CALLVALUE DUP1 ISZERO PUSH2 0x1A9 JUMPI PUSH0 DUP1 REVERT JUMPDEST POP PUSH2 0x1C4 PUSH1 0x4 DUP1 CALLDATASIZE SUB DUP2 ADD SWAP1 PUSH2 0x1BF SWAP2 SWAP1 PUSH2 0xFB0 JUMP JUMPDEST PUSH2 0x75D JUMP JUMPDEST PUSH1 0x40 MLOAD PUSH2 0x1D1 SWAP2 SWAP1 PUSH2 0xDD0 JUMP JUMPDEST PUSH1 0x40 MLOAD DUP1 SWAP2 SUB SWAP1 RETURN JUMPDEST CALLVALUE DUP1 ISZERO PUSH2 0x1E5 JUMPI PUSH0 DUP1 REVERT JUMPDEST POP PUSH2 0x1EE PUSH2 0x7A0 JUMP JUMPDEST PUSH1 0x40 MLOAD PUSH2 0x1FB SWAP2 SWAP1 PUSH2 0xF97 JUMP JUMPDEST PUSH1 0x40 MLOAD DUP1 SWAP2 SUB SWAP1 RETURN JUMPDEST PUSH0 PUSH1 0x1 PUSH1 0x14 SWAP1 SLOAD SWAP1 PUSH2 0x100 EXP SWAP1 DIV PUSH1 0xFF AND SWAP1 POP SWAP1 JUMP JUMPDEST PUSH32 0x0 PUSH20 0xFFFFFFFFFFFFFFFFFFFFFFFFFFFFFFFFFFFFFFFF AND CALLER PUSH20 0xFFFFFFFFFFFFFFFFFFFFFFFFFFFFFFFFFFFFFFFF AND EQ PUSH2 0x2CC JUMPI CALLER PUSH32 0x0 PUSH1 0x40 MLOAD PUSH32 0x1CF993F400000000000000000000000000000000000000000000000000000000 DUP2 MSTORE PUSH1 0x4 ADD PUSH2 0x2C3 SWAP3 SWAP2 SWAP1 PUSH2 0xFDB JUMP JUMPDEST PUSH1 0x40 MLOAD DUP1 SWAP2 SUB SWAP1 REVERT JUMPDEST PUSH2 0x2D6 DUP3 DUP3 PUSH2 0x7AE JUMP JUMPDEST POP POP JUMP JUMPDEST PUSH32 0x0 CALLVALUE LT ISZERO PUSH2 0x334 JUMPI PUSH1 0x40 MLOAD PUSH32 0x840BA71200000000000000000000000000000000000000000000000000000000 DUP2 MSTORE PUSH1 0x4 ADD PUSH1 0x40 MLOAD DUP1 SWAP2 SUB SWAP1 REVERT JUMPDEST PUSH0 PUSH1 0x1 DUP2 GT ISZERO PUSH2 0x347 JUMPI PUSH2 0x346 PUSH2 0xA73 JUMP JUMPDEST JUMPDEST PUSH1 0x1 PUSH1 0x14 SWAP1 SLOAD SWAP1 PUSH2 0x100 EXP SWAP1 DIV PUSH1 0xFF AND PUSH1 0x1 DUP2 GT ISZERO PUSH2 0x369 JUMPI PUSH2 0x368 PUSH2 0xA73 JUMP JUMPDEST JUMPDEST EQ PUSH2 0x3A0 JUMPI PUSH1 0x40 MLOAD PUSH32 0xDDAFAD9800000000000000000000000000000000000000000000000000000000 DUP2 MSTORE PUSH1 0x4 ADD PUSH1 0x40 MLOAD DUP1 SWAP2 SUB SWAP1 REVERT JUMPDEST PUSH0 CALLER SWAP1 DUP1 PUSH1 0x1 DUP2 SLOAD ADD DUP1 DUP3 SSTORE DUP1 SWAP2 POP POP PUSH1 0x1 SWAP1 SUB SWAP1 PUSH0 MSTORE PUSH1 0x20 PUSH0 KECCAK256 ADD PUSH0 SWAP1 SWAP2 SWAP1 SWAP2 SWAP1 SWAP2 PUSH2 0x100 EXP DUP2 SLOAD DUP2 PUSH20 0xFFFFFFFFFFFFFFFFFFFFFFFFFFFFFFFFFFFFFFFF MUL NOT AND SWAP1 DUP4 PUSH20 0xFFFFFFFFFFFFFFFFFFFFFFFFFFFFFFFFFFFFFFFF AND MUL OR SWAP1 SSTORE POP CALLER PUSH20 0xFFFFFFFFFFFFFFFFFFFFFFFFFFFFFFFFFFFFFFFF AND PUSH32 0x805E1D667BDDB8A95F0F09880CF94F403FB596CE79928D9F29B74203BA284D4 PUSH1 0x40 MLOAD PUSH1 0x40 MLOAD DUP1 SWAP2 SUB SWAP1 LOG2 JUMP JUMPDEST PUSH0 PUSH2 0x45C PUSH1 0x40 MLOAD DUP1 PUSH1 0x20 ADD PUSH1 0x40 MSTORE DUP1 PUSH0 DUP2 MSTORE POP PUSH2 0x655 JUMP JUMPDEST POP SWAP1 POP DUP1 PUSH2 0x4CA JUMPI SELFBALANCE PUSH0 DUP1 SLOAD SWAP1 POP PUSH1 0x1 PUSH1 0x14 SWAP1 SLOAD SWAP1 PUSH2 0x100 EXP SWAP1 DIV PUSH1 0xFF AND PUSH1 0x1 DUP2 GT ISZERO PUSH2 0x48C JUMPI PUSH2 0x48B PUSH2 0xA73 JUMP JUMPDEST JUMPDEST PUSH1 0x40 MLOAD PUSH32 0x54BB541000000000000000000000000000000000000000000000000000000000 DUP2 MSTORE PUSH1 0x4 ADD PUSH2 0x4C1 SWAP4 SWAP3 SWAP2 SWAP1 PUSH2 0x1002 JUMP JUMPDEST PUSH1 0x40 MLOAD DUP1 SWAP2 SUB SWAP1 REVERT JUMPDEST PUSH1 0x1 DUP1 PUSH1 0x14 PUSH2 0x100 EXP DUP2 SLOAD DUP2 PUSH1 0xFF MUL NOT AND SWAP1 DUP4 PUSH1 0x1 DUP2 GT ISZERO PUSH2 0x4EF JUMPI PUSH2 0x4EE PUSH2 0xA73 JUMP JUMPDEST JUMPDEST MUL OR SWAP1 SSTORE POP PUSH0 PUSH32 0x0 PUSH20 0xFFFFFFFFFFFFFFFFFFFFFFFFFFFFFFFFFFFFFFFF AND PUSH4 0x5D3B1D30 PUSH32 0x0 PUSH32 0x0 PUSH1 0x3 PUSH32 0x0 PUSH1 0x1 PUSH1 0x40 MLOAD DUP7 PUSH4 0xFFFFFFFF AND PUSH1 0xE0 SHL DUP2 MSTORE PUSH1 0x4 ADD PUSH2 0x5B8 SWAP6 SWAP5 SWAP4 SWAP3 SWAP2 SWAP1 PUSH2 0x10AB JUMP JUMPDEST PUSH1 0x20 PUSH1 0x40 MLOAD DUP1 DUP4 SUB DUP2 PUSH0 DUP8 GAS CALL ISZERO DUP1 ISZERO PUSH2 0x5D4 JUMPI RETURNDATASIZE PUSH0 DUP1 RETURNDATACOPY RETURNDATASIZE PUSH0 REVERT JUMPDEST POP POP POP POP PUSH1 0x40 MLOAD RETURNDATASIZE PUSH1 0x1F NOT PUSH1 0x1F DUP3 ADD AND DUP3 ADD DUP1 PUSH1 0x40 MSTORE POP DUP2 ADD SWAP1 PUSH2 0x5F8 SWAP2 SWAP1 PUSH2 0x1110 JUMP JUMPDEST SWAP1 POP DUP1 PUSH32 0xCD6E45C8998311CAB7E9D4385596CAC867E20A0587194B954FA3A731C93CE78B PUSH1 0x40 MLOAD PUSH1 0x40 MLOAD DUP1 SWAP2 SUB SWAP1 LOG2 POP POP POP POP JUMP JUMPDEST PUSH0 PUSH1 0x1 PUSH0 SWAP1 SLOAD SWAP1 PUSH2 0x100 EXP SWAP1 DIV PUSH20 0xFFFFFFFFFFFFFFFFFFFFFFFFFFFFFFFFFFFFFFFF AND SWAP1 POP SWAP1 JUMP JUMPDEST PUSH0 PUSH1 0x60 PUSH0 PUSH1 0x1 PUSH1 0x14 SWAP1 SLOAD SWAP1 PUSH2 0x100 EXP SWAP1 DIV PUSH1 0xFF AND PUSH1 0x1 DUP2 GT ISZERO PUSH2 0x67B JUMPI PUSH2 0x67A PUSH2 0xA73 JUMP JUMPDEST JUMPDEST PUSH0 PUSH1 0x1 DUP2 GT ISZERO PUSH2 0x68E JUMPI PUSH2 0x68D PUSH2 0xA73 JUMP JUMPDEST JUMPDEST EQ SWAP1 POP PUSH0 PUSH32 0x0 PUSH1 0x2 SLOAD TIMESTAMP PUSH2 0x6C1 SWAP2 SWAP1 PUSH2 0x1168 JUMP JUMPDEST GT SWAP1 POP PUSH0 DUP1 PUSH0 DUP1 SLOAD SWAP1 POP GT SWAP1 POP PUSH0 DUP1 SELFBALANCE GT SWAP1 POP DUP3 DUP1 ISZERO PUSH2 0x6DE JUMPI POP DUP4 JUMPDEST DUP1 ISZERO PUSH2 0x6E7 JUMPI POP DUP1 JUMPDEST DUP1 ISZERO PUSH2 0x6F0 JUMPI POP DUP2 JUMPDEST SWAP6 POP DUP6 PUSH1 0x40 MLOAD DUP1 PUSH1 0x40 ADD PUSH1 0x40 MSTORE DUP1 PUSH1 0x3 DUP2 MSTORE PUSH1 0x20 ADD PUSH32 0x3078300000000000000000000000000000000000000000000000000000000000 DUP2 MSTORE POP SWAP6 POP SWAP6 POP POP POP POP POP SWAP2 POP SWAP2 JUMP JUMPDEST PUSH0 PUSH32 0x0 SWAP1 POP SWAP1 JUMP JUMPDEST PUSH0 DUP1 DUP3 DUP2 SLOAD DUP2 LT PUSH2 0x771 JUMPI PUSH2 0x770 PUSH2 0x119B JUMP JUMPDEST JUMPDEST SWAP1 PUSH0 MSTORE PUSH1 0x20 PUSH0 KECCAK256 ADD PUSH0 SWAP1 SLOAD SWAP1 PUSH2 0x100 EXP SWAP1 DIV PUSH20 0xFFFFFFFFFFFFFFFFFFFFFFFFFFFFFFFFFFFFFFFF AND SWAP1 POP SWAP2 SWAP1 POP JUMP JUMPDEST PUSH0 PUSH1 0x1 PUSH4 0xFFFFFFFF AND SWAP1 POP SWAP1 JUMP JUMPDEST PUSH0 DUP1 DUP1 SLOAD SWAP1 POP DUP3 PUSH0 DUP2 MLOAD DUP2 LT PUSH2 0x7C7 JUMPI PUSH2 0x7C6 PUSH2 0x119B JUMP JUMPDEST JUMPDEST PUSH1 0x20 MUL PUSH1 0x20 ADD ADD MLOAD PUSH2 0x7D9 SWAP2 SWAP1 PUSH2 0x11F5 JUMP JUMPDEST SWAP1 POP PUSH0 DUP1 DUP3 DUP2 SLOAD DUP2 LT PUSH2 0x7EF JUMPI PUSH2 0x7EE PUSH2 0x119B JUMP JUMPDEST JUMPDEST SWAP1 PUSH0 MSTORE PUSH1 0x20 PUSH0 KECCAK256 ADD PUSH0 SWAP1 SLOAD SWAP1 PUSH2 0x100 EXP SWAP1 DIV PUSH20 0xFFFFFFFFFFFFFFFFFFFFFFFFFFFFFFFFFFFFFFFF AND SWAP1 POP DUP1 PUSH1 0x1 PUSH0 PUSH2 0x100 EXP DUP2 SLOAD DUP2 PUSH20 0xFFFFFFFFFFFFFFFFFFFFFFFFFFFFFFFFFFFFFFFF MUL NOT AND SWAP1 DUP4 PUSH20 0xFFFFFFFFFFFFFFFFFFFFFFFFFFFFFFFFFFFFFFFF AND MUL OR SWAP1 SSTORE POP PUSH0 PUSH1 0x1 PUSH1 0x14 PUSH2 0x100 EXP DUP2 SLOAD DUP2 PUSH1 0xFF MUL NOT AND SWAP1 DUP4 PUSH1 0x1 DUP2 GT ISZERO PUSH2 0x87E JUMPI PUSH2 0x87D PUSH2 0xA73 JUMP JUMPDEST JUMPDEST MUL OR SWAP1 SSTORE POP PUSH0 PUSH8 0xFFFFFFFFFFFFFFFF DUP2 GT ISZERO PUSH2 0x89D JUMPI PUSH2 0x89C PUSH2 0xB57 JUMP JUMPDEST JUMPDEST PUSH1 0x40 MLOAD SWAP1 DUP1 DUP3 MSTORE DUP1 PUSH1 0x20 MUL PUSH1 0x20 ADD DUP3 ADD PUSH1 0x40 MSTORE DUP1 ISZERO PUSH2 0x8CB JUMPI DUP2 PUSH1 0x20 ADD PUSH1 0x20 DUP3 MUL DUP1 CALLDATASIZE DUP4 CALLDATACOPY DUP1 DUP3 ADD SWAP2 POP POP SWAP1 POP JUMPDEST POP PUSH0 SWAP1 DUP1 MLOAD SWAP1 PUSH1 0x20 ADD SWAP1 PUSH2 0x8E0 SWAP3 SWAP2 SWAP1 PUSH2 0x9D1 JUMP JUMPDEST POP TIMESTAMP PUSH1 0x2 DUP2 SWAP1 SSTORE POP PUSH0 DUP2 PUSH20 0xFFFFFFFFFFFFFFFFFFFFFFFFFFFFFFFFFFFFFFFF AND SELFBALANCE PUSH1 0x40 MLOAD PUSH2 0x90D SWAP1 PUSH2 0x1252 JUMP JUMPDEST PUSH0 PUSH1 0x40 MLOAD DUP1 DUP4 SUB DUP2 DUP6 DUP8 GAS CALL SWAP3 POP POP POP RETURNDATASIZE DUP1 PUSH0 DUP2 EQ PUSH2 0x947 JUMPI PUSH1 0x40 MLOAD SWAP2 POP PUSH1 0x1F NOT PUSH1 0x3F RETURNDATASIZE ADD AND DUP3 ADD PUSH1 0x40 MSTORE RETURNDATASIZE DUP3 MSTORE RETURNDATASIZE PUSH0 PUSH1 0x20 DUP5 ADD RETURNDATACOPY PUSH2 0x94C JUMP JUMPDEST PUSH1 0x60 SWAP2 POP JUMPDEST POP POP SWAP1 POP DUP1 PUSH2 0x987 JUMPI PUSH1 0x40 MLOAD PUSH32 0x90B8EC1800000000000000000000000000000000000000000000000000000000 DUP2 MSTORE PUSH1 0x4 ADD PUSH1 0x40 MLOAD DUP1 SWAP2 SUB SWAP1 REVERT JUMPDEST DUP2 PUSH20 0xFFFFFFFFFFFFFFFFFFFFFFFFFFFFFFFFFFFFFFFF AND PUSH32 0x5B690EC4A06FE979403046EAEEA5B3CE38524683C3001F662C8B5A829632F7DF PUSH1 0x40 MLOAD PUSH1 0x40 MLOAD DUP1 SWAP2 SUB SWAP1 LOG2 POP POP POP POP POP JUMP JUMPDEST DUP3 DUP1 SLOAD DUP3 DUP3 SSTORE SWAP1 PUSH0 MSTORE PUSH1 0x20 PUSH0 KECCAK256 SWAP1 DUP2 ADD SWAP3 DUP3 ISZERO PUSH2 0xA47 JUMPI SWAP2 PUSH1 0x20 MUL DUP3 ADD JUMPDEST DUP3 DUP2 GT ISZERO PUSH2 0xA46 JUMPI DUP3 MLOAD DUP3 PUSH0 PUSH2 0x100 EXP DUP2 SLOAD DUP2 PUSH20 0xFFFFFFFFFFFFFFFFFFFFFFFFFFFFFFFFFFFFFFFF MUL NOT AND SWAP1 DUP4 PUSH20 0xFFFFFFFFFFFFFFFFFFFFFFFFFFFFFFFFFFFFFFFF AND MUL OR SWAP1 SSTORE POP SWAP2 PUSH1 0x20 ADD SWAP2 SWAP1 PUSH1 0x1 ADD SWAP1 PUSH2 0x9EF JUMP JUMPDEST JUMPDEST POP SWAP1 POP PUSH2 0xA54 SWAP2 SWAP1 PUSH2 0xA58 JUMP JUMPDEST POP SWAP1 JUMP JUMPDEST JUMPDEST DUP1 DUP3 GT ISZERO PUSH2 0xA6F JUMPI PUSH0 DUP2 PUSH0 SWAP1 SSTORE POP PUSH1 0x1 ADD PUSH2 0xA59 JUMP JUMPDEST POP SWAP1 JUMP JUMPDEST PUSH32 0x4E487B7100000000000000000000000000000000000000000000000000000000 PUSH0 MSTORE PUSH1 0x21 PUSH1 0x4 MSTORE PUSH1 0x24 PUSH0 REVERT JUMPDEST PUSH1 0x2 DUP2 LT PUSH2 0xAB1 JUMPI PUSH2 0xAB0 PUSH2 0xA73 JUMP JUMPDEST JUMPDEST POP JUMP JUMPDEST PUSH0 DUP2 SWAP1 POP PUSH2 0xAC1 DUP3 PUSH2 0xAA0 JUMP JUMPDEST SWAP2 SWAP1 POP JUMP JUMPDEST PUSH0 PUSH2 0xAD0 DUP3 PUSH2 0xAB4 JUMP JUMPDEST SWAP1 POP SWAP2 SWAP1 POP JUMP JUMPDEST PUSH2 0xAE0 DUP2 PUSH2 0xAC6 JUMP JUMPDEST DUP3 MSTORE POP POP JUMP JUMPDEST PUSH0 PUSH1 0x20 DUP3 ADD SWAP1 POP PUSH2 0xAF9 PUSH0 DUP4 ADD DUP5 PUSH2 0xAD7 JUMP JUMPDEST SWAP3 SWAP2 POP POP JUMP JUMPDEST PUSH0 PUSH1 0x40 MLOAD SWAP1 POP SWAP1 JUMP JUMPDEST PUSH0 DUP1 REVERT JUMPDEST PUSH0 DUP1 REVERT JUMPDEST PUSH0 DUP2 SWAP1 POP SWAP2 SWAP1 POP JUMP JUMPDEST PUSH2 0xB22 DUP2 PUSH2 0xB10 JUMP JUMPDEST DUP2 EQ PUSH2 0xB2C JUMPI PUSH0 DUP1 REVERT JUMPDEST POP JUMP JUMPDEST PUSH0 DUP2 CALLDATALOAD SWAP1 POP PUSH2 0xB3D DUP2 PUSH2 0xB19 JUMP JUMPDEST SWAP3 SWAP2 POP POP JUMP JUMPDEST PUSH0 DUP1 REVERT JUMPDEST PUSH0 PUSH1 0x1F NOT PUSH1 0x1F DUP4 ADD AND SWAP1 POP SWAP2 SWAP1 POP JUMP JUMPDEST PUSH32 0x4E487B7100000000000000000000000000000000000000000000000000000000 PUSH0 MSTORE PUSH1 0x41 PUSH1 0x4 MSTORE PUSH1 0x24 PUSH0 REVERT JUMPDEST PUSH2 0xB8D DUP3 PUSH2 0xB47 JUMP JUMPDEST DUP2 ADD DUP2 DUP2 LT PUSH8 0xFFFFFFFFFFFFFFFF DUP3 GT OR ISZERO PUSH2 0xBAC JUMPI PUSH2 0xBAB PUSH2 0xB57 JUMP JUMPDEST JUMPDEST DUP1 PUSH1 0x40 MSTORE POP POP POP JUMP JUMPDEST PUSH0 PUSH2 0xBBE PUSH2 0xAFF JUMP JUMPDEST SWAP1 POP PUSH2 0xBCA DUP3 DUP3 PUSH2 0xB84 JUMP JUMPDEST SWAP2 SWAP1 POP JUMP JUMPDEST PUSH0 PUSH8 0xFFFFFFFFFFFFFFFF DUP3 GT ISZERO PUSH2 0xBE9 JUMPI PUSH2 0xBE8 PUSH2 0xB57 JUMP JUMPDEST JUMPDEST PUSH1 0x20 DUP3 MUL SWAP1 POP PUSH1 0x20 DUP2 ADD SWAP1 POP SWAP2 SWAP1 POP JUMP JUMPDEST PUSH0 DUP1 REVERT JUMPDEST PUSH0 PUSH2 0xC10 PUSH2 0xC0B DUP5 PUSH2 0xBCF JUMP JUMPDEST PUSH2 0xBB5 JUMP JUMPDEST SWAP1 POP DUP1 DUP4 DUP3 MSTORE PUSH1 0x20 DUP3 ADD SWAP1 POP PUSH1 0x20 DUP5 MUL DUP4 ADD DUP6 DUP2 GT ISZERO PUSH2 0xC33 JUMPI PUSH2 0xC32 PUSH2 0xBFA JUMP JUMPDEST JUMPDEST DUP4 JUMPDEST DUP2 DUP2 LT ISZERO PUSH2 0xC5C JUMPI DUP1 PUSH2 0xC48 DUP9 DUP3 PUSH2 0xB2F JUMP JUMPDEST DUP5 MSTORE PUSH1 0x20 DUP5 ADD SWAP4 POP POP PUSH1 0x20 DUP2 ADD SWAP1 POP PUSH2 0xC35 JUMP JUMPDEST POP POP POP SWAP4 SWAP3 POP POP POP JUMP JUMPDEST PUSH0 DUP3 PUSH1 0x1F DUP4 ADD SLT PUSH2 0xC7A JUMPI PUSH2 0xC79 PUSH2 0xB43 JUMP JUMPDEST JUMPDEST DUP2 CALLDATALOAD PUSH2 0xC8A DUP5 DUP3 PUSH1 0x20 DUP7 ADD PUSH2 0xBFE JUMP JUMPDEST SWAP2 POP POP SWAP3 SWAP2 POP POP JUMP JUMPDEST PUSH0 DUP1 PUSH1 0x40 DUP4 DUP6 SUB SLT ISZERO PUSH2 0xCA9 JUMPI PUSH2 0xCA8 PUSH2 0xB08 JUMP JUMPDEST JUMPDEST PUSH0 PUSH2 0xCB6 DUP6 DUP3 DUP7 ADD PUSH2 0xB2F JUMP JUMPDEST SWAP3 POP POP PUSH1 0x20 DUP4 ADD CALLDATALOAD PUSH8 0xFFFFFFFFFFFFFFFF DUP2 GT ISZERO PUSH2 0xCD7 JUMPI PUSH2 0xCD6 PUSH2 0xB0C JUMP JUMPDEST JUMPDEST PUSH2 0xCE3 DUP6 DUP3 DUP7 ADD PUSH2 0xC66 JUMP JUMPDEST SWAP2 POP POP SWAP3 POP SWAP3 SWAP1 POP JUMP JUMPDEST PUSH0 DUP1 REVERT JUMPDEST PUSH0 DUP1 DUP4 PUSH1 0x1F DUP5 ADD SLT PUSH2 0xD06 JUMPI PUSH2 0xD05 PUSH2 0xB43 JUMP JUMPDEST JUMPDEST DUP3 CALLDATALOAD SWAP1 POP PUSH8 0xFFFFFFFFFFFFFFFF DUP2 GT ISZERO PUSH2 0xD23 JUMPI PUSH2 0xD22 PUSH2 0xCED JUMP JUMPDEST JUMPDEST PUSH1 0x20 DUP4 ADD SWAP2 POP DUP4 PUSH1 0x1 DUP3 MUL DUP4 ADD GT ISZERO PUSH2 0xD3F JUMPI PUSH2 0xD3E PUSH2 0xBFA JUMP JUMPDEST JUMPDEST SWAP3 POP SWAP3 SWAP1 POP JUMP JUMPDEST PUSH0 DUP1 PUSH1 0x20 DUP4 DUP6 SUB SLT ISZERO PUSH2 0xD5C JUMPI PUSH2 0xD5B PUSH2 0xB08 JUMP JUMPDEST JUMPDEST PUSH0 DUP4 ADD CALLDATALOAD PUSH8 0xFFFFFFFFFFFFFFFF DUP2 GT ISZERO PUSH2 0xD79 JUMPI PUSH2 0xD78 PUSH2 0xB0C JUMP JUMPDEST JUMPDEST PUSH2 0xD85 DUP6 DUP3 DUP7 ADD PUSH2 0xCF1 JUMP JUMPDEST SWAP3 POP SWAP3 POP POP SWAP3 POP SWAP3 SWAP1 POP JUMP JUMPDEST PUSH0 PUSH20 0xFFFFFFFFFFFFFFFFFFFFFFFFFFFFFFFFFFFFFFFF DUP3 AND SWAP1 POP SWAP2 SWAP1 POP JUMP JUMPDEST PUSH0 PUSH2 0xDBA DUP3 PUSH2 0xD91 JUMP JUMPDEST SWAP1 POP SWAP2 SWAP1 POP JUMP JUMPDEST PUSH2 0xDCA DUP2 PUSH2 0xDB0 JUMP JUMPDEST DUP3 MSTORE POP POP JUMP JUMPDEST PUSH0 PUSH1 0x20 DUP3 ADD SWAP1 POP PUSH2 0xDE3 PUSH0 DUP4 ADD DUP5 PUSH2 0xDC1 JUMP JUMPDEST SWAP3 SWAP2 POP POP JUMP JUMPDEST PUSH0 DUP1 REVERT JUMPDEST PUSH0 PUSH8 0xFFFFFFFFFFFFFFFF DUP3 GT ISZERO PUSH2 0xE07 JUMPI PUSH2 0xE06 PUSH2 0xB57 JUMP JUMPDEST JUMPDEST PUSH2 0xE10 DUP3 PUSH2 0xB47 JUMP JUMPDEST SWAP1 POP PUSH1 0x20 DUP2 ADD SWAP1 POP SWAP2 SWAP1 POP JUMP JUMPDEST DUP3 DUP2 DUP4 CALLDATACOPY PUSH0 DUP4 DUP4 ADD MSTORE POP POP POP JUMP JUMPDEST PUSH0 PUSH2 0xE3D PUSH2 0xE38 DUP5 PUSH2 0xDED JUMP JUMPDEST PUSH2 0xBB5 JUMP JUMPDEST SWAP1 POP DUP3 DUP2 MSTORE PUSH1 0x20 DUP2 ADD DUP5 DUP5 DUP5 ADD GT ISZERO PUSH2 0xE59 JUMPI PUSH2 0xE58 PUSH2 0xDE9 JUMP JUMPDEST JUMPDEST PUSH2 0xE64 DUP5 DUP3 DUP6 PUSH2 0xE1D JUMP JUMPDEST POP SWAP4 SWAP3 POP POP POP JUMP JUMPDEST PUSH0 DUP3 PUSH1 0x1F DUP4 ADD SLT PUSH2 0xE80 JUMPI PUSH2 0xE7F PUSH2 0xB43 JUMP JUMPDEST JUMPDEST DUP2 CALLDATALOAD PUSH2 0xE90 DUP5 DUP3 PUSH1 0x20 DUP7 ADD PUSH2 0xE2B JUMP JUMPDEST SWAP2 POP POP SWAP3 SWAP2 POP POP JUMP JUMPDEST PUSH0 PUSH1 0x20 DUP3 DUP5 SUB SLT ISZERO PUSH2 0xEAE JUMPI PUSH2 0xEAD PUSH2 0xB08 JUMP JUMPDEST JUMPDEST PUSH0 DUP3 ADD CALLDATALOAD PUSH8 0xFFFFFFFFFFFFFFFF DUP2 GT ISZERO PUSH2 0xECB JUMPI PUSH2 0xECA PUSH2 0xB0C JUMP JUMPDEST JUMPDEST PUSH2 0xED7 DUP5 DUP3 DUP6 ADD PUSH2 0xE6C JUMP JUMPDEST SWAP2 POP POP SWAP3 SWAP2 POP POP JUMP JUMPDEST PUSH0 DUP2 ISZERO ISZERO SWAP1 POP SWAP2 SWAP1 POP JUMP JUMPDEST PUSH2 0xEF4 DUP2 PUSH2 0xEE0 JUMP JUMPDEST DUP3 MSTORE POP POP JUMP JUMPDEST PUSH0 DUP2 MLOAD SWAP1 POP SWAP2 SWAP1 POP JUMP JUMPDEST PUSH0 DUP3 DUP3 MSTORE PUSH1 0x20 DUP3 ADD SWAP1 POP SWAP3 SWAP2 POP POP JUMP JUMPDEST DUP3 DUP2 DUP4 MCOPY PUSH0 DUP4 DUP4 ADD MSTORE POP POP POP JUMP JUMPDEST PUSH0 PUSH2 0xF2C DUP3 PUSH2 0xEFA JUMP JUMPDEST PUSH2 0xF36 DUP2 DUP6 PUSH2 0xF04 JUMP JUMPDEST SWAP4 POP PUSH2 0xF46 DUP2 DUP6 PUSH1 0x20 DUP7 ADD PUSH2 0xF14 JUMP JUMPDEST PUSH2 0xF4F DUP2 PUSH2 0xB47 JUMP JUMPDEST DUP5 ADD SWAP2 POP POP SWAP3 SWAP2 POP POP JUMP JUMPDEST PUSH0 PUSH1 0x40 DUP3 ADD SWAP1 POP PUSH2 0xF6D PUSH0 DUP4 ADD DUP6 PUSH2 0xEEB JUMP JUMPDEST DUP2 DUP2 SUB PUSH1 0x20 DUP4 ADD MSTORE PUSH2 0xF7F DUP2 DUP5 PUSH2 0xF22 JUMP JUMPDEST SWAP1 POP SWAP4 SWAP3 POP POP POP JUMP JUMPDEST PUSH2 0xF91 DUP2 PUSH2 0xB10 JUMP JUMPDEST DUP3 MSTORE POP POP JUMP JUMPDEST PUSH0 PUSH1 0x20 DUP3 ADD SWAP1 POP PUSH2 0xFAA PUSH0 DUP4 ADD DUP5 PUSH2 0xF88 JUMP JUMPDEST SWAP3 SWAP2 POP POP JUMP JUMPDEST PUSH0 PUSH1 0x20 DUP3 DUP5 SUB SLT ISZERO PUSH2 0xFC5 JUMPI PUSH2 0xFC4 PUSH2 0xB08 JUMP JUMPDEST JUMPDEST PUSH0 PUSH2 0xFD2 DUP5 DUP3 DUP6 ADD PUSH2 0xB2F JUMP JUMPDEST SWAP2 POP POP SWAP3 SWAP2 POP POP JUMP JUMPDEST PUSH0 PUSH1 0x40 DUP3 ADD SWAP1 POP PUSH2 0xFEE PUSH0 DUP4 ADD DUP6 PUSH2 0xDC1 JUMP JUMPDEST PUSH2 0xFFB PUSH1 0x20 DUP4 ADD DUP5 PUSH2 0xDC1 JUMP JUMPDEST SWAP4 SWAP3 POP POP POP JUMP JUMPDEST PUSH0 PUSH1 0x60 DUP3 ADD SWAP1 POP PUSH2 0x1015 PUSH0 DUP4 ADD DUP7 PUSH2 0xF88 JUMP JUMPDEST PUSH2 0x1022 PUSH1 0x20 DUP4 ADD DUP6 PUSH2 0xF88 JUMP JUMPDEST PUSH2 0x102F PUSH1 0x40 DUP4 ADD DUP5 PUSH2 0xF88 JUMP JUMPDEST SWAP5 SWAP4 POP POP POP POP JUMP JUMPDEST PUSH0 DUP2 SWAP1 POP SWAP2 SWAP1 POP JUMP JUMPDEST PUSH2 0x1049 DUP2 PUSH2 0x1037 JUMP JUMPDEST DUP3 MSTORE POP POP JUMP JUMPDEST PUSH0 PUSH8 0xFFFFFFFFFFFFFFFF DUP3 AND SWAP1 POP SWAP2 SWAP1 POP JUMP JUMPDEST PUSH2 0x106B DUP2 PUSH2 0x104F JUMP JUMPDEST DUP3 MSTORE POP POP JUMP JUMPDEST PUSH0 PUSH2 0xFFFF DUP3 AND SWAP1 POP SWAP2 SWAP1 POP JUMP JUMPDEST PUSH2 0x1087 DUP2 PUSH2 0x1071 JUMP JUMPDEST DUP3 MSTORE POP POP JUMP JUMPDEST PUSH0 PUSH4 0xFFFFFFFF DUP3 AND SWAP1 POP SWAP2 SWAP1 POP JUMP JUMPDEST PUSH2 0x10A5 DUP2 PUSH2 0x108D JUMP JUMPDEST DUP3 MSTORE POP POP JUMP JUMPDEST PUSH0 PUSH1 0xA0 DUP3 ADD SWAP1 POP PUSH2 0x10BE PUSH0 DUP4 ADD DUP9 PUSH2 0x1040 JUMP JUMPDEST PUSH2 0x10CB PUSH1 0x20 DUP4 ADD DUP8 PUSH2 0x1062 JUMP JUMPDEST PUSH2 0x10D8 PUSH1 0x40 DUP4 ADD DUP7 PUSH2 0x107E JUMP JUMPDEST PUSH2 0x10E5 PUSH1 0x60 DUP4 ADD DUP6 PUSH2 0x109C JUMP JUMPDEST PUSH2 0x10F2 PUSH1 0x80 DUP4 ADD DUP5 PUSH2 0x109C JUMP JUMPDEST SWAP7 SWAP6 POP POP POP POP POP POP JUMP JUMPDEST PUSH0 DUP2 MLOAD SWAP1 POP PUSH2 0x110A DUP2 PUSH2 0xB19 JUMP JUMPDEST SWAP3 SWAP2 POP POP JUMP JUMPDEST PUSH0 PUSH1 0x20 DUP3 DUP5 SUB SLT ISZERO PUSH2 0x1125 JUMPI PUSH2 0x1124 PUSH2 0xB08 JUMP JUMPDEST JUMPDEST PUSH0 PUSH2 0x1132 DUP5 DUP3 DUP6 ADD PUSH2 0x10FC JUMP JUMPDEST SWAP2 POP POP SWAP3 SWAP2 POP POP JUMP JUMPDEST PUSH32 0x4E487B7100000000000000000000000000000000000000000000000000000000 PUSH0 MSTORE PUSH1 0x11 PUSH1 0x4 MSTORE PUSH1 0x24 PUSH0 REVERT JUMPDEST PUSH0 PUSH2 0x1172 DUP3 PUSH2 0xB10 JUMP JUMPDEST SWAP2 POP PUSH2 0x117D DUP4 PUSH2 0xB10 JUMP JUMPDEST SWAP3 POP DUP3 DUP3 SUB SWAP1 POP DUP2 DUP2 GT ISZERO PUSH2 0x1195 JUMPI PUSH2 0x1194 PUSH2 0x113B JUMP JUMPDEST JUMPDEST SWAP3 SWAP2 POP POP JUMP JUMPDEST PUSH32 0x4E487B7100000000000000000000000000000000000000000000000000000000 PUSH0 MSTORE PUSH1 0x32 PUSH1 0x4 MSTORE PUSH1 0x24 PUSH0 REVERT JUMPDEST PUSH32 0x4E487B7100000000000000000000000000000000000000000000000000000000 PUSH0 MSTORE PUSH1 0x12 PUSH1 0x4 MSTORE PUSH1 0x24 PUSH0 REVERT JUMPDEST PUSH0 PUSH2 0x11FF DUP3 PUSH2 0xB10 JUMP JUMPDEST SWAP2 POP PUSH2 0x120A DUP4 PUSH2 0xB10 JUMP JUMPDEST SWAP3 POP DUP3 PUSH2 0x121A JUMPI PUSH2 0x1219 PUSH2 0x11C8 JUMP JUMPDEST JUMPDEST DUP3 DUP3 MOD SWAP1 POP SWAP3 SWAP2 POP POP JUMP JUMPDEST PUSH0 DUP2 SWAP1 POP SWAP3 SWAP2 POP POP JUMP JUMPDEST POP JUMP JUMPDEST PUSH0 PUSH2 0x123D PUSH0 DUP4 PUSH2 0x1225 JUMP JUMPDEST SWAP2 POP PUSH2 0x1248 DUP3 PUSH2 0x122F JUMP JUMPDEST PUSH0 DUP3 ADD SWAP1 POP SWAP2 SWAP1 POP JUMP JUMPDEST PUSH0 PUSH2 0x125C DUP3 PUSH2 0x1232 JUMP JUMPDEST SWAP2 POP DUP2 SWAP1 POP SWAP2 SWAP1 POP JUMP INVALID LOG2 PUSH5 0x6970667358 0x22 SLT KECCAK256 0xEA OR SWAP15 0x21 0xFC 0xA8 SWAP5 SMOD PUSH23 0x108A1573C0935170DA23A89DC662E2DEBB4922030FB766 PUSH5 0x736F6C6343 STOP ADDMOD BYTE STOP CALLER "
		},
		"gasEstimates": {
			"creation": {
				"codeDepositCost": "952800",
				"executionCost": "infinite",
				"totalCost": "infinite"
			},
			"external": {
				"checkUpkeep(bytes)": "infinite",
				"enterRaffle()": "infinite",
				"getFee()": "infinite",
				"getNumber()": "426",
				"getPlayer(uint256)": "5020",
				"getRaffleState()": "2613",
				"getRwinner()": "2515",
				"performUpkeep(bytes)": "infinite",
				"rawFulfillRandomWords(uint256,uint256[])": "infinite"
			},
			"internal": {
				"fulfillRandomWords(uint256,uint256[] memory)": "infinite"
			}
		},
		"methodIdentifiers": {
			"checkUpkeep(bytes)": "6e04ff0d",
			"enterRaffle()": "2cfcc539",
			"getFee()": "ced72f87",
			"getNumber()": "f2c9ecd8",
			"getPlayer(uint256)": "e55ae4e8",
			"getRaffleState()": "115cbaf5",
			"getRwinner()": "50c7d12b",
			"performUpkeep(bytes)": "4585e33b",
			"rawFulfillRandomWords(uint256,uint256[])": "1fe543e3"
		}
	},
	"abi": [
		{
			"inputs": [
				{
					"internalType": "address",
					"name": "vrfCoordinatorV2",
					"type": "address"
				},
				{
					"internalType": "uint256",
					"name": "entranceFee",
					"type": "uint256"
				},
				{
					"internalType": "bytes32",
					"name": "gasLane",
					"type": "bytes32"
				},
				{
					"internalType": "uint64",
					"name": "subscriptionId",
					"type": "uint64"
				},
				{
					"internalType": "uint32",
					"name": "callbackGasLimit",
					"type": "uint32"
				},
				{
					"internalType": "uint256",
					"name": "interval",
					"type": "uint256"
				}
			],
			"stateMutability": "nonpayable",
			"type": "constructor"
		},
		{
			"inputs": [],
			"name": "NotOpen",
			"type": "error"
		},
		{
			"inputs": [
				{
					"internalType": "uint256",
					"name": "currentBalance",
					"type": "uint256"
				},
				{
					"internalType": "uint256",
					"name": "numPlayers",
					"type": "uint256"
				},
				{
					"internalType": "uint256",
					"name": "raffleState",
					"type": "uint256"
				}
			],
			"name": "NotUpkeepNeeded",
			"type": "error"
		},
		{
			"inputs": [
				{
					"internalType": "address",
					"name": "have",
					"type": "address"
				},
				{
					"internalType": "address",
					"name": "want",
					"type": "address"
				}
			],
			"name": "OnlyCoordinatorCanFulfill",
			"type": "error"
		},
		{
			"inputs": [],
			"name": "TransferFailed",
			"type": "error"
		},
		{
			"inputs": [],
			"name": "notEnoughETH",
			"type": "error"
		},
		{
			"anonymous": false,
			"inputs": [
				{
					"indexed": true,
					"internalType": "address",
					"name": "player",
					"type": "address"
				}
			],
			"name": "RaffleEnter",
			"type": "event"
		},
		{
			"anonymous": false,
			"inputs": [
				{
					"indexed": true,
					"internalType": "uint256",
					"name": "requestId",
					"type": "uint256"
				}
			],
			"name": "RequestedRaffleWinner",
			"type": "event"
		},
		{
			"anonymous": false,
			"inputs": [
				{
					"indexed": true,
					"internalType": "address",
					"name": "winner",
					"type": "address"
				}
			],
			"name": "WinnerPicked",
			"type": "event"
		},
		{
			"inputs": [
				{
					"internalType": "bytes",
					"name": "",
					"type": "bytes"
				}
			],
			"name": "checkUpkeep",
			"outputs": [
				{
					"internalType": "bool",
					"name": "upkeepNeeded",
					"type": "bool"
				},
				{
					"internalType": "bytes",
					"name": "",
					"type": "bytes"
				}
			],
			"stateMutability": "view",
			"type": "function"
		},
		{
			"inputs": [],
			"name": "enterRaffle",
			"outputs": [],
			"stateMutability": "payable",
			"type": "function"
		},
		{
			"inputs": [],
			"name": "getFee",
			"outputs": [
				{
					"internalType": "uint256",
					"name": "",
					"type": "uint256"
				}
			],
			"stateMutability": "view",
			"type": "function"
		},
		{
			"inputs": [],
			"name": "getNumber",
			"outputs": [
				{
					"internalType": "uint256",
					"name": "",
					"type": "uint256"
				}
			],
			"stateMutability": "pure",
			"type": "function"
		},
		{
			"inputs": [
				{
					"internalType": "uint256",
					"name": "index",
					"type": "uint256"
				}
			],
			"name": "getPlayer",
			"outputs": [
				{
					"internalType": "address",
					"name": "",
					"type": "address"
				}
			],
			"stateMutability": "view",
			"type": "function"
		},
		{
			"inputs": [],
			"name": "getRaffleState",
			"outputs": [
				{
					"internalType": "enum lottery.RaffleState",
					"name": "",
					"type": "uint8"
				}
			],
			"stateMutability": "view",
			"type": "function"
		},
		{
			"inputs": [],
			"name": "getRwinner",
			"outputs": [
				{
					"internalType": "address",
					"name": "",
					"type": "address"
				}
			],
			"stateMutability": "view",
			"type": "function"
		},
		{
			"inputs": [
				{
					"internalType": "bytes",
					"name": "",
					"type": "bytes"
				}
			],
			"name": "performUpkeep",
			"outputs": [],
			"stateMutability": "nonpayable",
			"type": "function"
		},
		{
			"inputs": [
				{
					"internalType": "uint256",
					"name": "requestId",
					"type": "uint256"
				},
				{
					"internalType": "uint256[]",
					"name": "randomWords",
					"type": "uint256[]"
				}
			],
			"name": "rawFulfillRandomWords",
			"outputs": [],
			"stateMutability": "nonpayable",
			"type": "function"
		}
	]
}